{
  "contractName": "Proxy_Wallet",
  "abi": [
    {
      "inputs": [
        {
          "name": "_chronosScheduler",
          "type": "address"
        }
      ],
      "payable": false,
      "stateMutability": "nonpayable",
      "type": "constructor"
    },
    {
      "constant": false,
      "inputs": [],
      "name": "getIndex",
      "outputs": [
        {
          "name": "",
          "type": "uint8"
        }
      ],
      "payable": false,
      "stateMutability": "nonpayable",
      "type": "function"
    },
    {
      "constant": false,
      "inputs": [
        {
          "name": "_serializedTransaction",
          "type": "bytes"
        }
      ],
      "name": "schedule",
      "outputs": [],
      "payable": false,
      "stateMutability": "nonpayable",
      "type": "function"
    },
    {
      "constant": false,
      "inputs": [
        {
          "name": "_target",
          "type": "address"
        },
        {
          "name": "_callData",
          "type": "bytes"
        }
      ],
      "name": "proxy",
      "outputs": [],
      "payable": true,
      "stateMutability": "payable",
      "type": "function"
    }
  ],
  "bytecode": "0x608060405234801561001057600080fd5b506040516020806106918339810180604052810190808051906020019092919050505060003390806001815401808255809150509060018203906000526020600020016000909192909190916101000a81548173ffffffffffffffffffffffffffffffffffffffff021916908373ffffffffffffffffffffffffffffffffffffffff16021790555050806001806101000a81548173ffffffffffffffffffffffffffffffffffffffff021916908373ffffffffffffffffffffffffffffffffffffffff160217905550506105a8806100e96000396000f300608060405260043610610057576000357c0100000000000000000000000000000000000000000000000000000000900463ffffffff16806381045ead1461005c578063be6d055a1461008d578063db26e34d14610109575b600080fd5b34801561006857600080fd5b50610071610172565b604051808260ff1660ff16815260200191505060405180910390f35b610107600480360381019080803573ffffffffffffffffffffffffffffffffffffffff169060200190929190803590602001908201803590602001908080601f01602080910402602001604051908101604052809392919081815260200183838082843782019150505050505091929192905050506101a0565b005b34801561011557600080fd5b50610170600480360381019080803590602001908201803590602001908080601f01602080910402602001604051908101604052809392919081815260200183838082843782019150505050505091929192905050506102d9565b005b600060018060050360ff16600160009054906101000a900460ff1660ff1681151561019957fe5b0601905090565b60008060009150600090505b600560ff168160ff1611151561023e5760008160ff168154811015156101ce57fe5b9060005260206000200160009054906101000a900473ffffffffffffffffffffffffffffffffffffffff1673ffffffffffffffffffffffffffffffffffffffff163373ffffffffffffffffffffffffffffffffffffffff16141561023157600191505b80806001019150506101ac565b81151561024a57600080fd5b8373ffffffffffffffffffffffffffffffffffffffff16348460405180828051906020019080838360005b83811015610290578082015181840152602081019050610275565b50505050905090810190601f1680156102bd5780820380516001836020036101000a031916815260200191505b5091505060006040518083038185875af1925050505050505050565b60008060008060009150600090505b600560ff168160ff1611151561037a5760008160ff1681548110151561030a57fe5b9060005260206000200160009054906101000a900473ffffffffffffffffffffffffffffffffffffffff1673ffffffffffffffffffffffffffffffffffffffff163373ffffffffffffffffffffffffffffffffffffffff16141561036d57600191505b80806001019150506102e8565b81151561038657600080fd5b6001809054906101000a900473ffffffffffffffffffffffffffffffffffffffff1673ffffffffffffffffffffffffffffffffffffffff1663db26e34d866040518263ffffffff167c01000000000000000000000000000000000000000000000000000000000281526004018080602001828103825283818151815260200191508051906020019080838360005b8381101561042f578082015181840152602081019050610414565b50505050905090810190601f16801561045c5780820380516001836020036101000a031916815260200191505b5092505050602060405180830381600087803b15801561047b57600080fd5b505af115801561048f573d6000803e3d6000fd5b505050506040513d60208110156104a557600080fd5b8101908080519060200190929190505050935060008473ffffffffffffffffffffffffffffffffffffffff16141515156104de57600080fd5b6001600081819054906101000a900460ff168092919060010191906101000a81548160ff021916908360ff16021790555050610518610172565b92508360008460ff1681548110151561052d57fe5b9060005260206000200160006101000a81548173ffffffffffffffffffffffffffffffffffffffff021916908373ffffffffffffffffffffffffffffffffffffffff16021790555050505050505600a165627a7a7230582029559258d9cc65b4e308ac8deadcff9f615c4d24e6b9c9e76e64912df534db720029",
  "source": "pragma solidity ^0.4.19;\n\nimport \"../chronos/contracts/Scheduler.sol\";\n\ncontract Proxy_Wallet {\n    uint8 constant MAX_WHITELIST = 5;\n\n    address[] whitelist;\n    uint8 index;\n    Scheduler scheduler;\n\n    function Proxy_Wallet(address _chronosScheduler) {\n        whitelist.push(msg.sender);\n        scheduler = Scheduler(_chronosScheduler);\n    }\n\n    function getIndex() returns (uint8) {\n        return (index % (MAX_WHITELIST-1)) +1;\n    }\n\n    function schedule(bytes _serializedTransaction)\n        isWhitelisted\n    {\n        address scheduledTransaction = scheduler.schedule(_serializedTransaction);\n        //sanity\n        require(scheduledTransaction != 0x0);\n        index++;\n        uint8 idx = getIndex();\n        whitelist[idx] = scheduledTransaction;\n    }\n\n    function proxy(\n        address _target,\n        bytes _callData\n    ) isWhitelisted payable {\n        _target.call.value(msg.value)(_callData);\n    }\n\n    modifier isWhitelisted() {\n        bool found = false;\n        for (var i = 0; i <= MAX_WHITELIST; i++) {\n            if (msg.sender == whitelist[i]) {\n                found = true;\n            }\n        }\n        require(found);\n        _;\n    }\n}",
  "sourcePath": "/home/volt/Projects/melonport-hackathon/contracts/Proxy_Wallet.sol",
  "compiler": {
    "name": "solc",
    "version": "0.4.23+commit.124ca40d.Emscripten.clang"
  },
  "schemaVersion": "2.0.0",
  "updatedAt": "2018-05-18T08:47:12.742Z"
}