{
  "contractName": "ClaimElection",
  "abi": [
    {
      "constant": true,
      "inputs": [],
      "name": "awaitingConfirm",
      "outputs": [
        {
          "name": "",
          "type": "address"
        }
      ],
      "payable": false,
      "stateMutability": "view",
      "type": "function"
    },
    {
      "constant": false,
      "inputs": [
        {
          "name": "_newAuthorized",
          "type": "address"
        }
      ],
      "name": "transferAuth",
      "outputs": [
        {
          "name": "",
          "type": "bool"
        }
      ],
      "payable": false,
      "stateMutability": "nonpayable",
      "type": "function"
    },
    {
      "constant": false,
      "inputs": [],
      "name": "acceptAuth",
      "outputs": [
        {
          "name": "",
          "type": "bool"
        }
      ],
      "payable": false,
      "stateMutability": "nonpayable",
      "type": "function"
    },
    {
      "constant": true,
      "inputs": [],
      "name": "authorized",
      "outputs": [
        {
          "name": "",
          "type": "address"
        }
      ],
      "payable": false,
      "stateMutability": "view",
      "type": "function"
    },
    {
      "constant": true,
      "inputs": [],
      "name": "pQueue",
      "outputs": [
        {
          "name": "",
          "type": "address"
        }
      ],
      "payable": false,
      "stateMutability": "view",
      "type": "function"
    },
    {
      "constant": true,
      "inputs": [],
      "name": "token",
      "outputs": [
        {
          "name": "",
          "type": "address"
        }
      ],
      "payable": false,
      "stateMutability": "view",
      "type": "function"
    },
    {
      "inputs": [],
      "payable": false,
      "stateMutability": "nonpayable",
      "type": "constructor"
    },
    {
      "constant": false,
      "inputs": [
        {
          "name": "_t",
          "type": "address"
        }
      ],
      "name": "setToken",
      "outputs": [],
      "payable": false,
      "stateMutability": "nonpayable",
      "type": "function"
    },
    {
      "constant": false,
      "inputs": [
        {
          "name": "_amt",
          "type": "uint256"
        },
        {
          "name": "_pos",
          "type": "bytes8"
        }
      ],
      "name": "joinQueue",
      "outputs": [
        {
          "name": "success",
          "type": "bool"
        }
      ],
      "payable": false,
      "stateMutability": "nonpayable",
      "type": "function"
    },
    {
      "constant": true,
      "inputs": [
        {
          "name": "_tn",
          "type": "address"
        }
      ],
      "name": "getNumBonds",
      "outputs": [
        {
          "name": "",
          "type": "uint256"
        }
      ],
      "payable": false,
      "stateMutability": "view",
      "type": "function"
    },
    {
      "constant": true,
      "inputs": [
        {
          "name": "_tn",
          "type": "address"
        },
        {
          "name": "_num",
          "type": "uint256"
        }
      ],
      "name": "getBond",
      "outputs": [
        {
          "name": "",
          "type": "uint256"
        }
      ],
      "payable": false,
      "stateMutability": "view",
      "type": "function"
    },
    {
      "constant": false,
      "inputs": [],
      "name": "getNext",
      "outputs": [
        {
          "name": "",
          "type": "address"
        }
      ],
      "payable": false,
      "stateMutability": "nonpayable",
      "type": "function"
    },
    {
      "constant": true,
      "inputs": [],
      "name": "isEmpty",
      "outputs": [
        {
          "name": "",
          "type": "bool"
        }
      ],
      "payable": false,
      "stateMutability": "view",
      "type": "function"
    }
  ],
  "bytecode": "0x608060405234801561001057600080fd5b50336000806101000a81548173ffffffffffffffffffffffffffffffffffffffff021916908373ffffffffffffffffffffffffffffffffffffffff1602179055506100596100bb565b604051809103906000f080158015610075573d6000803e3d6000fd5b50600260006101000a81548173ffffffffffffffffffffffffffffffffffffffff021916908373ffffffffffffffffffffffffffffffffffffffff1602179055506100cb565b60405161326280610ffd83390190565b610f23806100da6000396000f3006080604052600436106100ba576000357c0100000000000000000000000000000000000000000000000000000000900463ffffffff16806308a7c40f146100bf578063144fa6d71461011657806318044b9a146101595780631e8b0709146101b05780632eeb13261461021a5780633a652d2714610275578063456cb7c6146102a4578063681fe70c146102fb578063c36d549d1461032a578063db8ca42614610381578063f3638f78146103e2578063fc0c546a14610439575b600080fd5b3480156100cb57600080fd5b50610100600480360381019080803573ffffffffffffffffffffffffffffffffffffffff169060200190929190505050610490565b6040518082815260200191505060405180910390f35b34801561012257600080fd5b50610157600480360381019080803573ffffffffffffffffffffffffffffffffffffffff1690602001909291905050506104d9565b005b34801561016557600080fd5b5061016e610578565b604051808273ffffffffffffffffffffffffffffffffffffffff1673ffffffffffffffffffffffffffffffffffffffff16815260200191505060405180910390f35b3480156101bc57600080fd5b5061020060048036038101908080359060200190929190803577ffffffffffffffffffffffffffffffffffffffffffffffff1916906020019092919050505061059e565b604051808215151515815260200191505060405180910390f35b34801561022657600080fd5b5061025b600480360381019080803573ffffffffffffffffffffffffffffffffffffffff1690602001909291905050506109e9565b604051808215151515815260200191505060405180910390f35b34801561028157600080fd5b5061028a610a90565b604051808215151515815260200191505060405180910390f35b3480156102b057600080fd5b506102b9610b5a565b604051808273ffffffffffffffffffffffffffffffffffffffff1673ffffffffffffffffffffffffffffffffffffffff16815260200191505060405180910390f35b34801561030757600080fd5b50610310610b7f565b604051808215151515815260200191505060405180910390f35b34801561033657600080fd5b5061033f610c47565b604051808273ffffffffffffffffffffffffffffffffffffffff1673ffffffffffffffffffffffffffffffffffffffff16815260200191505060405180910390f35b34801561038d57600080fd5b506103cc600480360381019080803573ffffffffffffffffffffffffffffffffffffffff16906020019092919080359060200190929190505050610c6d565b6040518082815260200191505060405180910390f35b3480156103ee57600080fd5b506103f7610ccb565b604051808273ffffffffffffffffffffffffffffffffffffffff1673ffffffffffffffffffffffffffffffffffffffff16815260200191505060405180910390f35b34801561044557600080fd5b5061044e610ed1565b604051808273ffffffffffffffffffffffffffffffffffffffff1673ffffffffffffffffffffffffffffffffffffffff16815260200191505060405180910390f35b6000600560008373ffffffffffffffffffffffffffffffffffffffff1673ffffffffffffffffffffffffffffffffffffffff168152602001908152602001600020549050919050565b6000809054906101000a900473ffffffffffffffffffffffffffffffffffffffff1673ffffffffffffffffffffffffffffffffffffffff163373ffffffffffffffffffffffffffffffffffffffff1614151561053457600080fd5b80600360006101000a81548173ffffffffffffffffffffffffffffffffffffffff021916908373ffffffffffffffffffffffffffffffffffffffff16021790555050565b600160009054906101000a900473ffffffffffffffffffffffffffffffffffffffff1681565b6000806000600360009054906101000a900473ffffffffffffffffffffffffffffffffffffffff1673ffffffffffffffffffffffffffffffffffffffff166370a08231336040518263ffffffff167c0100000000000000000000000000000000000000000000000000000000028152600401808273ffffffffffffffffffffffffffffffffffffffff1673ffffffffffffffffffffffffffffffffffffffff168152602001915050602060405180830381600087803b15801561066057600080fd5b505af1158015610674573d6000803e3d6000fd5b505050506040513d602081101561068a57600080fd5b810190808051906020019092919050505091508482101515156106ac57600080fd5b600360009054906101000a900473ffffffffffffffffffffffffffffffffffffffff1673ffffffffffffffffffffffffffffffffffffffff166323b872dd3330886040518463ffffffff167c0100000000000000000000000000000000000000000000000000000000028152600401808473ffffffffffffffffffffffffffffffffffffffff1673ffffffffffffffffffffffffffffffffffffffff1681526020018373ffffffffffffffffffffffffffffffffffffffff1673ffffffffffffffffffffffffffffffffffffffff1681526020018281526020019350505050602060405180830381600087803b1580156107a557600080fd5b505af11580156107b9573d6000803e3d6000fd5b505050506040513d60208110156107cf57600080fd5b810190808051906020019092919050505050600560003373ffffffffffffffffffffffffffffffffffffffff1673ffffffffffffffffffffffffffffffffffffffff168152602001908152602001600020600081548092919060010191905055905060206040519081016040528086815250600460003373ffffffffffffffffffffffffffffffffffffffff1673ffffffffffffffffffffffffffffffffffffffff168152602001908152602001600020600083815260200190815260200160002060008201518160000155905050600260009054906101000a900473ffffffffffffffffffffffffffffffffffffffff1673ffffffffffffffffffffffffffffffffffffffff16632a0c0dbb8587336040518463ffffffff167c0100000000000000000000000000000000000000000000000000000000028152600401808477ffffffffffffffffffffffffffffffffffffffffffffffff191677ffffffffffffffffffffffffffffffffffffffffffffffff191681526020018381526020018273ffffffffffffffffffffffffffffffffffffffff1673ffffffffffffffffffffffffffffffffffffffff1681526020019350505050602060405180830381600087803b1580156109a157600080fd5b505af11580156109b5573d6000803e3d6000fd5b505050506040513d60208110156109cb57600080fd5b81019080805190602001909291905050505060019250505092915050565b60008060009054906101000a900473ffffffffffffffffffffffffffffffffffffffff1673ffffffffffffffffffffffffffffffffffffffff163373ffffffffffffffffffffffffffffffffffffffff16141515610a4657600080fd5b81600160006101000a81548173ffffffffffffffffffffffffffffffffffffffff021916908373ffffffffffffffffffffffffffffffffffffffff16021790555060019050919050565b6000600160009054906101000a900473ffffffffffffffffffffffffffffffffffffffff1673ffffffffffffffffffffffffffffffffffffffff163373ffffffffffffffffffffffffffffffffffffffff16141515610aee57600080fd5b600160006101000a81549073ffffffffffffffffffffffffffffffffffffffff0219169055336000806101000a81548173ffffffffffffffffffffffffffffffffffffffff021916908373ffffffffffffffffffffffffffffffffffffffff1602179055506001905090565b6000809054906101000a900473ffffffffffffffffffffffffffffffffffffffff1681565b6000600260009054906101000a900473ffffffffffffffffffffffffffffffffffffffff1673ffffffffffffffffffffffffffffffffffffffff1663681fe70c6040518163ffffffff167c0100000000000000000000000000000000000000000000000000000000028152600401602060405180830381600087803b158015610c0757600080fd5b505af1158015610c1b573d6000803e3d6000fd5b505050506040513d6020811015610c3157600080fd5b8101908080519060200190929190505050905090565b600260009054906101000a900473ffffffffffffffffffffffffffffffffffffffff1681565b6000600460008473ffffffffffffffffffffffffffffffffffffffff1673ffffffffffffffffffffffffffffffffffffffff168152602001908152602001600020600083815260200190815260200160002060000154905092915050565b60008060008060009054906101000a900473ffffffffffffffffffffffffffffffffffffffff1673ffffffffffffffffffffffffffffffffffffffff163373ffffffffffffffffffffffffffffffffffffffff16141515610d2b57600080fd5b600260009054906101000a900473ffffffffffffffffffffffffffffffffffffffff1673ffffffffffffffffffffffffffffffffffffffff1663681fe70c6040518163ffffffff167c0100000000000000000000000000000000000000000000000000000000028152600401602060405180830381600087803b158015610db157600080fd5b505af1158015610dc5573d6000803e3d6000fd5b505050506040513d6020811015610ddb57600080fd5b810190808051906020019092919050505015610dfa5760009250610ecc565b600260009054906101000a900473ffffffffffffffffffffffffffffffffffffffff1673ffffffffffffffffffffffffffffffffffffffff1663a4ece52c6040518163ffffffff167c01000000000000000000000000000000000000000000000000000000000281526004016040805180830381600087803b158015610e7f57600080fd5b505af1158015610e93573d6000803e3d6000fd5b505050506040513d6040811015610ea957600080fd5b810190808051906020019092919080519060200190929190505050915091508092505b505090565b600360009054906101000a900473ffffffffffffffffffffffffffffffffffffffff16815600a165627a7a723058205c9904c0fe45691ed3abe80ae1666ed12f59e032b040947bf6071727012f9a7400296080604052336000806101000a81548173ffffffffffffffffffffffffffffffffffffffff021916908373ffffffffffffffffffffffffffffffffffffffff16021790555061320f806100536000396000f3006080604052600436106100fc576000357c0100000000000000000000000000000000000000000000000000000000900463ffffffff16806318044b9a14610101578063200fc3ff1461015857806329fc1419146101b95780632a0c0dbb146102305780632eeb1326146102ba5780633a652d2714610315578063456cb7c614610344578063549ffbd91461039b57806359e02dd71461042a578063681fe70c1461048857806370d23929146104b7578063a4ece52c146105fd578063a5eae8c11461065b578063ab70da8e146106c5578063b52a5d7614610726578063bae6c2ad14610871578063be5198621461089c578063c2571a0a14610913575b600080fd5b34801561010d57600080fd5b5061011661098a565b604051808273ffffffffffffffffffffffffffffffffffffffff1673ffffffffffffffffffffffffffffffffffffffff16815260200191505060405180910390f35b34801561016457600080fd5b5061016d6109b0565b604051808277ffffffffffffffffffffffffffffffffffffffffffffffff191677ffffffffffffffffffffffffffffffffffffffffffffffff1916815260200191505060405180910390f35b3480156101c557600080fd5b506101e4600480360381019080803590602001909291905050506109e2565b604051808277ffffffffffffffffffffffffffffffffffffffffffffffff191677ffffffffffffffffffffffffffffffffffffffffffffffff1916815260200191505060405180910390f35b34801561023c57600080fd5b506102a0600480360381019080803577ffffffffffffffffffffffffffffffffffffffffffffffff1916906020019092919080359060200190929190803573ffffffffffffffffffffffffffffffffffffffff169060200190929190505050610a9f565b604051808215151515815260200191505060405180910390f35b3480156102c657600080fd5b506102fb600480360381019080803573ffffffffffffffffffffffffffffffffffffffff169060200190929190505050611301565b604051808215151515815260200191505060405180910390f35b34801561032157600080fd5b5061032a6113a8565b604051808215151515815260200191505060405180910390f35b34801561035057600080fd5b50610359611472565b604051808273ffffffffffffffffffffffffffffffffffffffff1673ffffffffffffffffffffffffffffffffffffffff16815260200191505060405180910390f35b3480156103a757600080fd5b506103e1600480360381019080803577ffffffffffffffffffffffffffffffffffffffffffffffff19169060200190929190505050611497565b604051808381526020018273ffffffffffffffffffffffffffffffffffffffff1673ffffffffffffffffffffffffffffffffffffffff1681526020019250505060405180910390f35b34801561043657600080fd5b5061043f6115f7565b604051808381526020018273ffffffffffffffffffffffffffffffffffffffff1673ffffffffffffffffffffffffffffffffffffffff1681526020019250505060405180910390f35b34801561049457600080fd5b5061049d61172a565b604051808215151515815260200191505060405180910390f35b3480156104c357600080fd5b506104fd600480360381019080803577ffffffffffffffffffffffffffffffffffffffffffffffff19169060200190929190505050611739565b604051808677ffffffffffffffffffffffffffffffffffffffffffffffff191677ffffffffffffffffffffffffffffffffffffffffffffffff191681526020018577ffffffffffffffffffffffffffffffffffffffffffffffff191677ffffffffffffffffffffffffffffffffffffffffffffffff191681526020018477ffffffffffffffffffffffffffffffffffffffffffffffff191677ffffffffffffffffffffffffffffffffffffffffffffffff191681526020018373ffffffffffffffffffffffffffffffffffffffff1673ffffffffffffffffffffffffffffffffffffffff1681526020018281526020019550505050505060405180910390f35b34801561060957600080fd5b50610612611973565b604051808381526020018273ffffffffffffffffffffffffffffffffffffffff1673ffffffffffffffffffffffffffffffffffffffff1681526020019250505060405180910390f35b34801561066757600080fd5b506106ab600480360381019080803577ffffffffffffffffffffffffffffffffffffffffffffffff1916906020019092919080359060200190929190505050611a8b565b604051808215151515815260200191505060405180910390f35b3480156106d157600080fd5b506106da611d6d565b604051808277ffffffffffffffffffffffffffffffffffffffffffffffff191677ffffffffffffffffffffffffffffffffffffffffffffffff1916815260200191505060405180910390f35b34801561073257600080fd5b5061073b611d9f565b6040518086815260200180602001806020018060200180602001858103855289818151815260200191508051906020019060200280838360005b83811015610790578082015181840152602081019050610775565b50505050905001858103845288818151815260200191508051906020019060200280838360005b838110156107d25780820151818401526020810190506107b7565b50505050905001858103835287818151815260200191508051906020019060200280838360005b838110156108145780820151818401526020810190506107f9565b50505050905001858103825286818151815260200191508051906020019060200280838360005b8381101561085657808201518184015260208101905061083b565b50505050905001995050505050505050505060405180910390f35b34801561087d57600080fd5b50610886612237565b6040518082815260200191505060405180910390f35b3480156108a857600080fd5b506108c760048036038101908080359060200190929190505050612244565b604051808277ffffffffffffffffffffffffffffffffffffffffffffffff191677ffffffffffffffffffffffffffffffffffffffffffffffff1916815260200191505060405180910390f35b34801561091f57600080fd5b5061093e60048036038101908080359060200190929190505050612458565b604051808277ffffffffffffffffffffffffffffffffffffffffffffffff191677ffffffffffffffffffffffffffffffffffffffffffffffff1916815260200191505060405180910390f35b600160009054906101000a900473ffffffffffffffffffffffffffffffffffffffff1681565b6000600260000160089054906101000a9004780100000000000000000000000000000000000000000000000002905090565b600080600260030154831115610a165760007801000000000000000000000000000000000000000000000000029150610a99565b600280015483111515610a5557600260000160089054906101000a90047801000000000000000000000000000000000000000000000000029150610a99565b6002806002015460026003015403811515610a6c57fe5b04905082600280015482011115610a8d57610a8683612458565b9150610a99565b610a9683612244565b91505b50919050565b60008060008060009054906101000a900473ffffffffffffffffffffffffffffffffffffffff1673ffffffffffffffffffffffffffffffffffffffff163373ffffffffffffffffffffffffffffffffffffffff16141515610aff57600080fd5b610b098686611a8b565b1515610b1457600080fd5b838542604051808473ffffffffffffffffffffffffffffffffffffffff1673ffffffffffffffffffffffffffffffffffffffff166c010000000000000000000000000281526014018381526020018281526020019350505050604051809103902091506000600260040160008477ffffffffffffffffffffffffffffffffffffffffffffffff191677ffffffffffffffffffffffffffffffffffffffffffffffff1916815260200190815260200160002060000160009054906101000a900473ffffffffffffffffffffffffffffffffffffffff1673ffffffffffffffffffffffffffffffffffffffff16141515610c0857fe5b60007801000000000000000000000000000000000000000000000000028677ffffffffffffffffffffffffffffffffffffffffffffffff19161415610c7957600260000160009054906101000a90047801000000000000000000000000000000000000000000000000029050610cf1565b600260040160008777ffffffffffffffffffffffffffffffffffffffffffffffff191677ffffffffffffffffffffffffffffffffffffffffffffffff1916815260200190815260200160002060010160089054906101000a900478010000000000000000000000000000000000000000000000000290505b60a0604051908101604052808573ffffffffffffffffffffffffffffffffffffffff1681526020018377ffffffffffffffffffffffffffffffffffffffffffffffff191681526020018777ffffffffffffffffffffffffffffffffffffffffffffffff191681526020018277ffffffffffffffffffffffffffffffffffffffffffffffff1916815260200186815250600260040160008477ffffffffffffffffffffffffffffffffffffffffffffffff191677ffffffffffffffffffffffffffffffffffffffffffffffff1916815260200190815260200160002060008201518160000160006101000a81548173ffffffffffffffffffffffffffffffffffffffff021916908373ffffffffffffffffffffffffffffffffffffffff16021790555060208201518160000160146101000a81548167ffffffffffffffff021916908378010000000000000000000000000000000000000000000000009004021790555060408201518160010160006101000a81548167ffffffffffffffff021916908378010000000000000000000000000000000000000000000000009004021790555060608201518160010160086101000a81548167ffffffffffffffff0219169083780100000000000000000000000000000000000000000000000090040217905550608082015181600201559050506002600101600081548092919060010191905055506000780100000000000000000000000000000000000000000000000002600260040160008477ffffffffffffffffffffffffffffffffffffffffffffffff191677ffffffffffffffffffffffffffffffffffffffffffffffff1916815260200190815260200160002060010160009054906101000a900478010000000000000000000000000000000000000000000000000277ffffffffffffffffffffffffffffffffffffffffffffffff19161415156110395781600260040160008877ffffffffffffffffffffffffffffffffffffffffffffffff191677ffffffffffffffffffffffffffffffffffffffffffffffff1916815260200190815260200160002060010160086101000a81548167ffffffffffffffff0219169083780100000000000000000000000000000000000000000000000090040217905550611082565b81600260000160006101000a81548167ffffffffffffffff0219169083780100000000000000000000000000000000000000000000000090040217905550846002600301819055505b6000780100000000000000000000000000000000000000000000000002600260040160008477ffffffffffffffffffffffffffffffffffffffffffffffff191677ffffffffffffffffffffffffffffffffffffffffffffffff1916815260200190815260200160002060010160089054906101000a900478010000000000000000000000000000000000000000000000000277ffffffffffffffffffffffffffffffffffffffffffffffff1916141515611237578160026004016000600260040160008677ffffffffffffffffffffffffffffffffffffffffffffffff191677ffffffffffffffffffffffffffffffffffffffffffffffff1916815260200190815260200160002060010160089054906101000a900478010000000000000000000000000000000000000000000000000277ffffffffffffffffffffffffffffffffffffffffffffffff191677ffffffffffffffffffffffffffffffffffffffffffffffff1916815260200190815260200160002060010160006101000a81548167ffffffffffffffff021916908378010000000000000000000000000000000000000000000000009004021790555061127f565b81600260000160086101000a81548167ffffffffffffffff02191690837801000000000000000000000000000000000000000000000000900402179055508460028001819055505b7f929d6b4043c9fd9060e58506916e0cf11f4b277614e1a03a4c61cde6e284880e8286604051808377ffffffffffffffffffffffffffffffffffffffffffffffff191677ffffffffffffffffffffffffffffffffffffffffffffffff191681526020018281526020019250505060405180910390a16001925050509392505050565b60008060009054906101000a900473ffffffffffffffffffffffffffffffffffffffff1673ffffffffffffffffffffffffffffffffffffffff163373ffffffffffffffffffffffffffffffffffffffff1614151561135e57600080fd5b81600160006101000a81548173ffffffffffffffffffffffffffffffffffffffff021916908373ffffffffffffffffffffffffffffffffffffffff16021790555060019050919050565b6000600160009054906101000a900473ffffffffffffffffffffffffffffffffffffffff1673ffffffffffffffffffffffffffffffffffffffff163373ffffffffffffffffffffffffffffffffffffffff1614151561140657600080fd5b600160006101000a81549073ffffffffffffffffffffffffffffffffffffffff0219169055336000806101000a81548173ffffffffffffffffffffffffffffffffffffffff021916908373ffffffffffffffffffffffffffffffffffffffff1602179055506001905090565b6000809054906101000a900473ffffffffffffffffffffffffffffffffffffffff1681565b6000806000600260040160008577ffffffffffffffffffffffffffffffffffffffffffffffff191677ffffffffffffffffffffffffffffffffffffffffffffffff1916815260200190815260200160002060000160009054906101000a900473ffffffffffffffffffffffffffffffffffffffff1673ffffffffffffffffffffffffffffffffffffffff16141561152d576115f2565b600260040160008477ffffffffffffffffffffffffffffffffffffffffffffffff191677ffffffffffffffffffffffffffffffffffffffffffffffff1916815260200190815260200160002060020154600260040160008577ffffffffffffffffffffffffffffffffffffffffffffffff191677ffffffffffffffffffffffffffffffffffffffffffffffff1916815260200190815260200160002060000160009054906101000a900473ffffffffffffffffffffffffffffffffffffffff16915091505b915091565b60008061160261172a565b15151561160e57600080fd5b60026004016000600260000160009054906101000a900478010000000000000000000000000000000000000000000000000277ffffffffffffffffffffffffffffffffffffffffffffffff191677ffffffffffffffffffffffffffffffffffffffffffffffff191681526020019081526020016000206002015460026004016000600260000160009054906101000a900478010000000000000000000000000000000000000000000000000277ffffffffffffffffffffffffffffffffffffffffffffffff191677ffffffffffffffffffffffffffffffffffffffffffffffff1916815260200190815260200160002060000160009054906101000a900473ffffffffffffffffffffffffffffffffffffffff16915091509091565b60008060026001015414905090565b6000806000806000600260040160008777ffffffffffffffffffffffffffffffffffffffffffffffff191677ffffffffffffffffffffffffffffffffffffffffffffffff1916815260200190815260200160002060000160149054906101000a9004780100000000000000000000000000000000000000000000000002600260040160008877ffffffffffffffffffffffffffffffffffffffffffffffff191677ffffffffffffffffffffffffffffffffffffffffffffffff1916815260200190815260200160002060010160009054906101000a9004780100000000000000000000000000000000000000000000000002600260040160008977ffffffffffffffffffffffffffffffffffffffffffffffff191677ffffffffffffffffffffffffffffffffffffffffffffffff1916815260200190815260200160002060010160089054906101000a9004780100000000000000000000000000000000000000000000000002600260040160008a77ffffffffffffffffffffffffffffffffffffffffffffffff191677ffffffffffffffffffffffffffffffffffffffffffffffff1916815260200190815260200160002060000160009054906101000a900473ffffffffffffffffffffffffffffffffffffffff16600260040160008b77ffffffffffffffffffffffffffffffffffffffffffffffff191677ffffffffffffffffffffffffffffffffffffffffffffffff19168152602001908152602001600020600201549450945094509450945091939590929450565b6000806000809054906101000a900473ffffffffffffffffffffffffffffffffffffffff1673ffffffffffffffffffffffffffffffffffffffff163373ffffffffffffffffffffffffffffffffffffffff161415156119d157600080fd5b6119d96115f7565b8092508193505050611a14600260000160009054906101000a9004780100000000000000000000000000000000000000000000000002612662565b1515611a1c57fe5b7f8175128bf72be3b46137e66611ba18df872ce4e830958a09bffce026b9902ab58282604051808381526020018273ffffffffffffffffffffffffffffffffffffffff1673ffffffffffffffffffffffffffffffffffffffff1681526020019250505060405180910390a19091565b60008060007801000000000000000000000000000000000000000000000000028477ffffffffffffffffffffffffffffffffffffffffffffffff1916141515611c6f5782600260040160008677ffffffffffffffffffffffffffffffffffffffffffffffff191677ffffffffffffffffffffffffffffffffffffffffffffffff191681526020019081526020016000206002015410151515611b2c57600080fd5b600260000160089054906101000a900478010000000000000000000000000000000000000000000000000277ffffffffffffffffffffffffffffffffffffffffffffffff19168477ffffffffffffffffffffffffffffffffffffffffffffffff1916141515611c6a57600260040160008577ffffffffffffffffffffffffffffffffffffffffffffffff191677ffffffffffffffffffffffffffffffffffffffffffffffff1916815260200190815260200160002060010160089054906101000a9004780100000000000000000000000000000000000000000000000002905082600260040160008377ffffffffffffffffffffffffffffffffffffffffffffffff191677ffffffffffffffffffffffffffffffffffffffffffffffff1916815260200190815260200160002060020154101515611c6957600080fd5b5b611d62565b6000780100000000000000000000000000000000000000000000000002600260000160009054906101000a900478010000000000000000000000000000000000000000000000000277ffffffffffffffffffffffffffffffffffffffffffffffff1916141515611d61578260026004016000600260000160009054906101000a900478010000000000000000000000000000000000000000000000000277ffffffffffffffffffffffffffffffffffffffffffffffff191677ffffffffffffffffffffffffffffffffffffffffffffffff1916815260200190815260200160002060020154101515611d6057600080fd5b5b5b600191505092915050565b6000600260000160009054906101000a9004780100000000000000000000000000000000000000000000000002905090565b6000606080606080606080606080600080600260010154604051908082528060200260200182016040528015611de45781602001602082028038833980820191505090505b509550600260010154604051908082528060200260200182016040528015611e1b5781602001602082028038833980820191505090505b509450600260010154604051908082528060200260200182016040528015611e525781602001602082028038833980820191505090505b509350600260010154604051908082528060200260200182016040528015611e895781602001602082028038833980820191505090505b509250600260000160009054906101000a90047801000000000000000000000000000000000000000000000000029150600090505b60026001015481101561221657600260040160008377ffffffffffffffffffffffffffffffffffffffffffffffff191677ffffffffffffffffffffffffffffffffffffffffffffffff1916815260200190815260200160002060000160149054906101000a90047801000000000000000000000000000000000000000000000000028682815181101515611f4e57fe5b9060200190602002019077ffffffffffffffffffffffffffffffffffffffffffffffff1916908177ffffffffffffffffffffffffffffffffffffffffffffffff191681525050600260040160008377ffffffffffffffffffffffffffffffffffffffffffffffff191677ffffffffffffffffffffffffffffffffffffffffffffffff1916815260200190815260200160002060010160009054906101000a9004780100000000000000000000000000000000000000000000000002858281518110151561201757fe5b9060200190602002019077ffffffffffffffffffffffffffffffffffffffffffffffff1916908177ffffffffffffffffffffffffffffffffffffffffffffffff191681525050600260040160008377ffffffffffffffffffffffffffffffffffffffffffffffff191677ffffffffffffffffffffffffffffffffffffffffffffffff1916815260200190815260200160002060010160089054906101000a900478010000000000000000000000000000000000000000000000000284828151811015156120e057fe5b9060200190602002019077ffffffffffffffffffffffffffffffffffffffffffffffff1916908177ffffffffffffffffffffffffffffffffffffffffffffffff191681525050600260040160008377ffffffffffffffffffffffffffffffffffffffffffffffff191677ffffffffffffffffffffffffffffffffffffffffffffffff1916815260200190815260200160002060020154838281518110151561218457fe5b9060200190602002018181525050600260040160008377ffffffffffffffffffffffffffffffffffffffffffffffff191677ffffffffffffffffffffffffffffffffffffffffffffffff1916815260200190815260200160002060010160089054906101000a900478010000000000000000000000000000000000000000000000000291508080600101915050611ebe565b600260010154868686869a509a509a509a509a505050505050509091929394565b6000600260010154905090565b6000806000600260000160009054906101000a90047801000000000000000000000000000000000000000000000000029150600090505b6002600101548110156124505760007801000000000000000000000000000000000000000000000000028277ffffffffffffffffffffffffffffffffffffffffffffffff191614156122f957600260000160089054906101000a90047801000000000000000000000000000000000000000000000000029250612451565b83600260040160008477ffffffffffffffffffffffffffffffffffffffffffffffff191677ffffffffffffffffffffffffffffffffffffffffffffffff191681526020019081526020016000206002015410156123cc57600260040160008377ffffffffffffffffffffffffffffffffffffffffffffffff191677ffffffffffffffffffffffffffffffffffffffffffffffff1916815260200190815260200160002060010160009054906101000a90047801000000000000000000000000000000000000000000000000029250612451565b600260040160008377ffffffffffffffffffffffffffffffffffffffffffffffff191677ffffffffffffffffffffffffffffffffffffffffffffffff1916815260200190815260200160002060010160089054906101000a90047801000000000000000000000000000000000000000000000000029150808060010191505061227b565b5b5050919050565b600080600060026004016000600260000160089054906101000a900478010000000000000000000000000000000000000000000000000277ffffffffffffffffffffffffffffffffffffffffffffffff191677ffffffffffffffffffffffffffffffffffffffffffffffff1916815260200190815260200160002060010160009054906101000a90047801000000000000000000000000000000000000000000000000029150600280600101540390505b600081111561265a5760007801000000000000000000000000000000000000000000000000028277ffffffffffffffffffffffffffffffffffffffffffffffff19161415612575576000780100000000000000000000000000000000000000000000000002925061265b565b83600260040160008477ffffffffffffffffffffffffffffffffffffffffffffffff191677ffffffffffffffffffffffffffffffffffffffffffffffff19168152602001908152602001600020600201541015156125d55781925061265b565b600260040160008377ffffffffffffffffffffffffffffffffffffffffffffffff191677ffffffffffffffffffffffffffffffffffffffffffffffff1916815260200190815260200160002060010160009054906101000a90047801000000000000000000000000000000000000000000000000029150808060019003915050612509565b5b5050919050565b60008060007801000000000000000000000000000000000000000000000000028377ffffffffffffffffffffffffffffffffffffffffffffffff191614156126ad57600191506131dd565b600260040160008477ffffffffffffffffffffffffffffffffffffffffffffffff191677ffffffffffffffffffffffffffffffffffffffffffffffff191681526020019081526020016000206002015490506000780100000000000000000000000000000000000000000000000002600260040160008577ffffffffffffffffffffffffffffffffffffffffffffffff191677ffffffffffffffffffffffffffffffffffffffffffffffff1916815260200190815260200160002060010160009054906101000a900478010000000000000000000000000000000000000000000000000277ffffffffffffffffffffffffffffffffffffffffffffffff19161415612a4e57600260040160008477ffffffffffffffffffffffffffffffffffffffffffffffff191677ffffffffffffffffffffffffffffffffffffffffffffffff1916815260200190815260200160002060010160089054906101000a9004780100000000000000000000000000000000000000000000000002600260000160006101000a81548167ffffffffffffffff021916908378010000000000000000000000000000000000000000000000009004021790555060026004016000600260040160008677ffffffffffffffffffffffffffffffffffffffffffffffff191677ffffffffffffffffffffffffffffffffffffffffffffffff1916815260200190815260200160002060010160089054906101000a900478010000000000000000000000000000000000000000000000000277ffffffffffffffffffffffffffffffffffffffffffffffff191677ffffffffffffffffffffffffffffffffffffffffffffffff1916815260200190815260200160002060020154600260030181905550600078010000000000000000000000000000000000000000000000000260026004016000600260040160008777ffffffffffffffffffffffffffffffffffffffffffffffff191677ffffffffffffffffffffffffffffffffffffffffffffffff1916815260200190815260200160002060010160089054906101000a900478010000000000000000000000000000000000000000000000000277ffffffffffffffffffffffffffffffffffffffffffffffff191677ffffffffffffffffffffffffffffffffffffffffffffffff1916815260200190815260200160002060010160006101000a81548167ffffffffffffffff0219169083780100000000000000000000000000000000000000000000000090040217905550612bbf565b600260040160008477ffffffffffffffffffffffffffffffffffffffffffffffff191677ffffffffffffffffffffffffffffffffffffffffffffffff1916815260200190815260200160002060010160089054906101000a900478010000000000000000000000000000000000000000000000000260026004016000600260040160008777ffffffffffffffffffffffffffffffffffffffffffffffff191677ffffffffffffffffffffffffffffffffffffffffffffffff1916815260200190815260200160002060010160009054906101000a900478010000000000000000000000000000000000000000000000000277ffffffffffffffffffffffffffffffffffffffffffffffff191677ffffffffffffffffffffffffffffffffffffffffffffffff1916815260200190815260200160002060010160086101000a81548167ffffffffffffffff02191690837801000000000000000000000000000000000000000000000000900402179055505b6000780100000000000000000000000000000000000000000000000002600260040160008577ffffffffffffffffffffffffffffffffffffffffffffffff191677ffffffffffffffffffffffffffffffffffffffffffffffff1916815260200190815260200160002060010160089054906101000a900478010000000000000000000000000000000000000000000000000277ffffffffffffffffffffffffffffffffffffffffffffffff19161415612f0d57600260040160008477ffffffffffffffffffffffffffffffffffffffffffffffff191677ffffffffffffffffffffffffffffffffffffffffffffffff1916815260200190815260200160002060010160009054906101000a9004780100000000000000000000000000000000000000000000000002600260000160086101000a81548167ffffffffffffffff021916908378010000000000000000000000000000000000000000000000009004021790555060026004016000600260040160008677ffffffffffffffffffffffffffffffffffffffffffffffff191677ffffffffffffffffffffffffffffffffffffffffffffffff1916815260200190815260200160002060010160009054906101000a900478010000000000000000000000000000000000000000000000000277ffffffffffffffffffffffffffffffffffffffffffffffff191677ffffffffffffffffffffffffffffffffffffffffffffffff19168152602001908152602001600020600201546002800181905550600078010000000000000000000000000000000000000000000000000260026004016000600260040160008777ffffffffffffffffffffffffffffffffffffffffffffffff191677ffffffffffffffffffffffffffffffffffffffffffffffff1916815260200190815260200160002060010160009054906101000a900478010000000000000000000000000000000000000000000000000277ffffffffffffffffffffffffffffffffffffffffffffffff191677ffffffffffffffffffffffffffffffffffffffffffffffff1916815260200190815260200160002060010160086101000a81548167ffffffffffffffff021916908378010000000000000000000000000000000000000000000000009004021790555061307e565b600260040160008477ffffffffffffffffffffffffffffffffffffffffffffffff191677ffffffffffffffffffffffffffffffffffffffffffffffff1916815260200190815260200160002060010160009054906101000a900478010000000000000000000000000000000000000000000000000260026004016000600260040160008777ffffffffffffffffffffffffffffffffffffffffffffffff191677ffffffffffffffffffffffffffffffffffffffffffffffff1916815260200190815260200160002060010160089054906101000a900478010000000000000000000000000000000000000000000000000277ffffffffffffffffffffffffffffffffffffffffffffffff191677ffffffffffffffffffffffffffffffffffffffffffffffff1916815260200190815260200160002060010160006101000a81548167ffffffffffffffff02191690837801000000000000000000000000000000000000000000000000900402179055505b600260040160008477ffffffffffffffffffffffffffffffffffffffffffffffff191677ffffffffffffffffffffffffffffffffffffffffffffffff19168152602001908152602001600020600080820160006101000a81549073ffffffffffffffffffffffffffffffffffffffff02191690556000820160146101000a81549067ffffffffffffffff02191690556001820160006101000a81549067ffffffffffffffff02191690556001820160086101000a81549067ffffffffffffffff021916905560028201600090555050600260010160008154809291906001900391905055507f99aa1dd495a32ebf4bc11bd7117f3b34467068008b748a7b8683c95dba2366458382604051808377ffffffffffffffffffffffffffffffffffffffffffffffff191677ffffffffffffffffffffffffffffffffffffffffffffffff191681526020018281526020019250505060405180910390a1600191505b509190505600a165627a7a723058207b77a08002039d61a56043325ed933ae1565f936966ca29c69cf1a7fc15006cd0029",
  "source": "pragma solidity ^0.4.20;\n\nimport \"./Auth.sol\";\nimport \"../chronologic/contracts/DayToken.sol\";\nimport \"./PriorityQueue.sol\";\n\ncontract ClaimElection is Auth {\n    PriorityQueue public pQueue;\n    DayToken public token;\n\n    //constructor\n    function ClaimElection() public {\n        pQueue = new PriorityQueue();\n    }\n\n    function setToken(address _t) public auth {\n        token = DayToken(_t);\n    }\n\n    struct Bond {\n        uint256 value;\n        // uint256 depositedAt;\n    }\n\n    mapping (address => mapping(uint256 => Bond)) bonds;\n    mapping (address => uint256) numBonds;\n\n    // Timenode cooldown\n    mapping (address => uint256) cooldown;\n\n    function joinQueue(uint256 _amt, bytes8 _pos)\n        public returns (bool success)\n    {\n        uint256 tokenBal = token.balanceOf(msg.sender);\n        require(tokenBal >= _amt);\n\n        token.transferFrom(msg.sender, address(this), _amt);\n        uint256 nextBond = numBonds[msg.sender]++;\n        bonds[msg.sender][nextBond] = Bond({\n            value: _amt\n        });\n\n        pQueue.insert(_pos, _amt, msg.sender);\n\n        // startCooldown(msg.sender);\n        return true;\n    }\n\n    function getNumBonds(address _tn)\n        public view returns (uint256)\n    {\n        return numBonds[_tn];\n    }\n\n    function getBond(address _tn, uint256 _num)\n        public view returns (uint256)\n    {\n        return bonds[_tn][_num].value;\n    }\n\n    function getNext()\n        auth\n        public returns (address)\n    {\n        if (pQueue.isEmpty()) {\n            return address(0x0);\n        }\n\n        var (_, next) = pQueue.pop();\n\n        return next;\n    }\n\n    function isEmpty()\n        public view returns (bool)\n    {\n        return pQueue.isEmpty();\n    }\n}\n",
  "sourcePath": "/home/volt/Projects/melonport-hackathon/chronos/contracts/ClaimElection.sol",
  "compiler": {
    "name": "solc",
    "version": "0.4.23+commit.124ca40d.Emscripten.clang"
  },
  "schemaVersion": "2.0.0",
  "updatedAt": "2018-05-17T23:59:33.971Z"
}