{
  "contractName": "IPFS",
  "abi": [
    {
      "constant": true,
      "inputs": [
        {
          "name": "_data",
          "type": "bytes"
        }
      ],
      "name": "generateHash",
      "outputs": [
        {
          "name": "sha256HashOfData",
          "type": "bytes32"
        }
      ],
      "payable": false,
      "stateMutability": "view",
      "type": "function"
    },
    {
      "constant": true,
      "inputs": [
        {
          "name": "_length",
          "type": "uint256"
        }
      ],
      "name": "lengthEncode",
      "outputs": [
        {
          "name": "",
          "type": "bytes"
        }
      ],
      "payable": false,
      "stateMutability": "view",
      "type": "function"
    },
    {
      "constant": true,
      "inputs": [
        {
          "name": "_in",
          "type": "bytes32"
        }
      ],
      "name": "toBytes",
      "outputs": [
        {
          "name": "",
          "type": "bytes"
        }
      ],
      "payable": false,
      "stateMutability": "pure",
      "type": "function"
    },
    {
      "constant": true,
      "inputs": [
        {
          "name": "_x",
          "type": "uint256"
        }
      ],
      "name": "bin",
      "outputs": [
        {
          "name": "",
          "type": "bytes"
        }
      ],
      "payable": false,
      "stateMutability": "view",
      "type": "function"
    },
    {
      "constant": true,
      "inputs": [
        {
          "name": "_byteArray",
          "type": "bytes"
        },
        {
          "name": "_byteArray2",
          "type": "bytes"
        }
      ],
      "name": "concat",
      "outputs": [
        {
          "name": "",
          "type": "bytes"
        }
      ],
      "payable": false,
      "stateMutability": "pure",
      "type": "function"
    }
  ],
  "bytecode": "0x608060405234801561001057600080fd5b50610bc3806100206000396000f30060806040526004361061006c576000357c0100000000000000000000000000000000000000000000000000000000900463ffffffff168062cc15b014610071578063326cf61c1461011757806354f0cbac146101c15780635f3376f314610246578063c4802eb51461036e575b600080fd5b34801561007d57600080fd5b5061009c60048036038101908080359060200190929190505050610414565b6040518080602001828103825283818151815260200191508051906020019080838360005b838110156100dc5780820151818401526020810190506100c1565b50505050905090810190601f1680156101095780820380516001836020036101000a031916815260200191505b509250505060405180910390f35b34801561012357600080fd5b50610146600480360381019080803560001916906020019092919050505061046b565b6040518080602001828103825283818151815260200191508051906020019080838360005b8381101561018657808201518184015260208101905061016b565b50505050905090810190601f1680156101b35780820380516001836020036101000a031916815260200191505b509250505060405180910390f35b3480156101cd57600080fd5b50610228600480360381019080803590602001908201803590602001908080601f0160208091040260200160405190810160405280939291908181526020018383808284378201915050505050509192919290505050610544565b60405180826000191660001916815260200191505060405180910390f35b34801561025257600080fd5b506102f3600480360381019080803590602001908201803590602001908080601f0160208091040260200160405190810160405280939291908181526020018383808284378201915050505050509192919290803590602001908201803590602001908080601f01602080910402602001604051908101604052809392919081815260200183838082843782019150505050505091929192905050506108b2565b6040518080602001828103825283818151815260200191508051906020019080838360005b83811015610333578082015181840152602081019050610318565b50505050905090810190601f1680156103605780820380516001836020036101000a031916815260200191505b509250505060405180910390f35b34801561037a57600080fd5b5061039960048036038101908080359060200190929190505050610a7a565b6040518080602001828103825283818151815260200191508051906020019080838360005b838110156103d95780820151818401526020810190506103be565b50505050905090810190601f1680156104065780820380516001836020036101000a031916815260200191505b509250505060405180910390f35b6060608082101561042f5761042882610a7a565b9050610466565b6104636104496080808581151561044257fe5b0601610a7a565b61045e60808581151561045857fe5b04610a7a565b6108b2565b90505b919050565b606080600060206040519080825280601f01601f1916602001820160405280156104a45781602001602082028038833980820191505090505b509150600090505b60208160ff16101561053a57838160ff166020811015156104c957fe5b1a7f010000000000000000000000000000000000000000000000000000000000000002828260ff168151811015156104fd57fe5b9060200101907effffffffffffffffffffffffffffffffffffffffffffffffffffffffffffff1916908160001a90535080806001019150506104ac565b8192505050919050565b60006060806105538451610414565b91506105688251600202600486510101610414565b905060026040805190810160405280600181526020017f0a00000000000000000000000000000000000000000000000000000000000000815250826040805190810160405280600381526020017f080212000000000000000000000000000000000000000000000000000000000081525085886040805190810160405280600181526020017f1800000000000000000000000000000000000000000000000000000000000000815250886040518088805190602001908083835b6020831015156106475780518252602082019150602081019050602083039250610622565b6001836020036101000a03801982511681845116808217855250505050505090500187805190602001908083835b60208310151561069a5780518252602082019150602081019050602083039250610675565b6001836020036101000a03801982511681845116808217855250505050505090500186805190602001908083835b6020831015156106ed57805182526020820191506020810190506020830392506106c8565b6001836020036101000a03801982511681845116808217855250505050505090500185805190602001908083835b602083101515610740578051825260208201915060208101905060208303925061071b565b6001836020036101000a03801982511681845116808217855250505050505090500184805190602001908083835b602083101515610793578051825260208201915060208101905060208303925061076e565b6001836020036101000a03801982511681845116808217855250505050505090500183805190602001908083835b6020831015156107e657805182526020820191506020810190506020830392506107c1565b6001836020036101000a03801982511681845116808217855250505050505090500182805190602001908083835b6020831015156108395780518252602082019150602081019050602083039250610814565b6001836020036101000a0380198251168184511680821785525050505050509050019750505050505050506020604051808303816000865af1158015610883573d6000803e3d6000fd5b5050506040513d602081101561089857600080fd5b810190808051906020019092919050505092505050919050565b606080600083518551016040519080825280601f01601f1916602001820160405280156108ee5781602001602082028038833980820191505090505b509150600090505b84518161ffff1610156109af57848161ffff1681518110151561091557fe5b9060200101517f010000000000000000000000000000000000000000000000000000000000000090047f010000000000000000000000000000000000000000000000000000000000000002828261ffff1681518110151561097257fe5b9060200101907effffffffffffffffffffffffffffffffffffffffffffffffffffffffffffff1916908160001a90535080806001019150506108f6565b5b83518551018161ffff161015610a6f578385518261ffff16038151811015156109d557fe5b9060200101517f010000000000000000000000000000000000000000000000000000000000000090047f010000000000000000000000000000000000000000000000000000000000000002828261ffff16815181101515610a3257fe5b9060200101907effffffffffffffffffffffffffffffffffffffffffffffffffffffffffffff1916908160001a90535080806001019150506109b0565b819250505092915050565b6060600060606000841415610ac55760006040519080825280601f01601f191660200182016040528015610abd5781602001602082028038833980820191505090505b509250610b90565b61010084811515610ad257fe5b067f010000000000000000000000000000000000000000000000000000000000000002915060016040519080825280601f01601f191660200182016040528015610b2b5781602001602082028038833980820191505090505b50905081816000815181101515610b3e57fe5b9060200101907effffffffffffffffffffffffffffffffffffffffffffffffffffffffffffff1916908160001a905350610b8d610b8761010086811515610b8157fe5b04610a7a565b826108b2565b92505b50509190505600a165627a7a7230582006630930de4ea30c12edc3273b9f8e1ed6732ee5dd72af69117bef6451d8d8de0029",
  "source": "pragma solidity ^0.4.19;\n\n/**\n * @title IPFS\n * Contract to verify IPFS hashes on chain.\n * Cribbed from https://github.com/MrChico/verifyIPFS/blob/master/contracts/verifyIPFS.sol\n */\ncontract IPFS {\n    // struct MultiHash {\n    //     bytes32 digest;\n    //     uint8 hashFunction;\n    //     uint8 size;\n    // }\n\n    bytes constant Prefix1 = hex\"0a\";\n    bytes constant Prefix2 = hex\"080212\";\n    bytes constant Postfix = hex\"18\";\n    bytes constant Sha256MultiHashPrefix = hex\"12\";\n    bytes constant LengthPrefix = hex\"20\";\n    bytes constant ALPHABET = '123456789ABCDEFGHJKLMNPQRSTUVWXYZabcdefghijkmnopqrstuvwxyz';\n\n    function generateHash(bytes _data) \n        public constant returns (bytes32 sha256HashOfData)//(bytes b58Hash)\n    {\n        // Convert the string to bytes explicitly.\n        // bytes memory data = _data;\n        //\n        bytes memory len1 = lengthEncode(_data.length);\n        bytes memory len2 = lengthEncode(_data.length + 4 + 2*len1.length);\n        return sha256(Prefix1, len2, Prefix2, len1, _data, Postfix, len1);\n        // return concat(concat(Sha256MultiHashPrefix, LengthPrefix), toBytes(sha256(Prefix1, len2, Prefix2, len1, data, Postfix, len1)));\n        // return base58(concat(concat(Sha256MultiHashPrefix, LengthPrefix), toBytes(sha256(\n        //     Prefix1, len2, Prefix2, len1, data, Postfix, len1\n        // ))));\n    }\n\n    function lengthEncode(uint256 _length)\n        public constant returns (bytes)\n    {\n        if (_length < 128) {\n            return bin(_length);\n        } else {\n            return concat(bin(_length % 128 + 128), bin(_length / 128));\n        }\n    }\n\n    // function base58(bytes _source)\n    //     public pure returns (bytes)\n    // {\n    //     if (_source.length == 0) {\n    //         return new bytes(0);\n    //     }\n    //     uint8[] memory digits = new uint8[](40);\n    //     digits[0] = 0;\n    //     uint8 digitLength = 1;\n    //     for (uint i = 0; i < _source.length; i++) {\n    //         uint carry = uint8(_source[i]);\n    //         for (uint j = 0; j < digitLength; j++) {\n    //             carry += uint(digits[j]) * 256;\n    //             digits[j] = uint8(carry % 58);\n    //             carry = carry / 58;\n    //         }\n\n    //         while (carry > 0) {\n    //             digits[digitLength] = uint8(carry % 58);\n    //             digitLength++;\n    //             // carry = carry / 58; // this line throws the invalid opcode\n    //             carry = 0; // this fixes it\n    //         }\n    //     }\n    //     return _source; // this is for testing\n    //     // return toAlphabet(reverse(truncate(digits, digitLength)));\n    // }\n\n    // function truncate(uint8[] _array, uint8 _length)\n    //     public pure returns (uint8[])\n    // {\n    //     uint8[] memory out = new uint8[](_length);\n    //     for (uint i = 0; i < _length; i++) {\n    //         out[i] = _array[i];\n    //     }\n    //     return out;\n    // }\n\n    // function reverse(uint8[] _in)\n    //     public pure returns (uint8[])\n    // {\n    //     uint8[] memory out = new uint8[](_in.length);\n    //     for (uint i = 0; i < _in.length; i++) {\n    //         out[i] = _in[_in.length-1-i];\n    //     }\n    //     return out;\n    // }\n\n    // function toAlphabet(uint8[] _indices)\n    //     public pure returns (bytes)\n    // {\n    //     bytes memory out = new bytes(_indices.length);\n    //     for (uint i = 0; i < _indices.length; i++) {\n    //         out[i] = ALPHABET[_indices[i]];\n    //     }\n    //     return out;\n    // }\n\n    function toBytes(bytes32 _in)\n        public pure returns (bytes)\n    {\n        bytes memory out = new bytes(32);\n        for (uint8 i = 0; i < 32; i++) {\n            out[i] = _in[i];\n        }\n        return out;\n    }\n\n    function bin(uint256 _x) \n        public view returns (bytes)\n    {\n        if (_x == 0) {\n            return new bytes(0);\n        } else {\n            byte s = byte(_x % 256);\n            bytes memory res = new bytes(1);\n            res[0] = s;\n            return concat(bin(_x / 256), res);\n        }\n    }\n\n    function concat(bytes _byteArray, bytes _byteArray2)\n        public pure returns (bytes)\n    {\n        bytes memory resArray = new bytes(_byteArray.length + _byteArray2.length);\n        for (uint16 i = 0; i < _byteArray.length; i++) {\n            resArray[i] = _byteArray[i];\n        }\n        for (i; i < (_byteArray.length + _byteArray2.length); i++) {\n            resArray[i] = _byteArray2[i - _byteArray.length];\n        }\n        return resArray;\n    }\n}",
  "sourcePath": "/home/volt/Projects/melonport-hackathon/chronos/contracts/IPFS.sol",
  "compiler": {
    "name": "solc",
    "version": "0.4.23+commit.124ca40d.Emscripten.clang"
  },
  "schemaVersion": "2.0.0",
  "updatedAt": "2018-05-18T15:59:08.987Z"
}