{
  "contractName": "MelonConditional",
  "abi": [
    {
      "constant": true,
      "inputs": [
        {
          "name": "_priceFeed",
          "type": "address"
        },
        {
          "name": "_asset",
          "type": "address"
        }
      ],
      "name": "extractPrice",
      "outputs": [
        {
          "name": "",
          "type": "uint256"
        }
      ],
      "payable": false,
      "stateMutability": "view",
      "type": "function"
    },
    {
      "constant": true,
      "inputs": [
        {
          "name": "_priceFeed",
          "type": "address"
        },
        {
          "name": "_asset",
          "type": "address"
        },
        {
          "name": "_price",
          "type": "uint256"
        },
        {
          "name": "_operator",
          "type": "string"
        }
      ],
      "name": "check",
      "outputs": [
        {
          "name": "",
          "type": "bool"
        }
      ],
      "payable": false,
      "stateMutability": "view",
      "type": "function"
    }
  ],
  "bytecode": "0x608060405234801561001057600080fd5b5061050b806100206000396000f30060806040526004361061004c576000357c0100000000000000000000000000000000000000000000000000000000900463ffffffff1680633b5553b614610051578063ed63fe1c146100c8575b600080fd5b34801561005d57600080fd5b506100b2600480360381019080803573ffffffffffffffffffffffffffffffffffffffff169060200190929190803573ffffffffffffffffffffffffffffffffffffffff169060200190929190505050610193565b6040518082815260200191505060405180910390f35b3480156100d457600080fd5b50610179600480360381019080803573ffffffffffffffffffffffffffffffffffffffff169060200190929190803573ffffffffffffffffffffffffffffffffffffffff16906020019092919080359060200190929190803590602001908201803590602001908080601f0160208091040260200160405190810160405280939291908181526020018383808284378201915050505050509192919290505050610278565b604051808215151515815260200191505060405180910390f35b6000808373ffffffffffffffffffffffffffffffffffffffff166341976e09846040518263ffffffff167c0100000000000000000000000000000000000000000000000000000000028152600401808273ffffffffffffffffffffffffffffffffffffffff1673ffffffffffffffffffffffffffffffffffffffff168152602001915050602060405180830381600087803b15801561023157600080fd5b505af1158015610245573d6000803e3d6000fd5b505050506040513d602081101561025b57600080fd5b810190808051906020019092919050505090508091505092915050565b60006040805190810160405280600281526020017f3e3d0000000000000000000000000000000000000000000000000000000000008152506040518082805190602001908083835b6020831015156102e557805182526020820191506020810190506020830392506102c0565b6001836020036101000a038019825116818451168082178552505050505050905001915050604051809103902060001916826040518082805190602001908083835b60208310151561034c5780518252602082019150602081019050602083039250610327565b6001836020036101000a03801982511681845116808217855250505050505090500191505060405180910390206000191614156103a3578261038e8686610193565b10151561039e57600190506104d7565b6104d6565b6040805190810160405280600281526020017f3c3d0000000000000000000000000000000000000000000000000000000000008152506040518082805190602001908083835b60208310151561040e57805182526020820191506020810190506020830392506103e9565b6001836020036101000a038019825116818451168082178552505050505050905001915050604051809103902060001916826040518082805190602001908083835b6020831015156104755780518252602082019150602081019050602083039250610450565b6001836020036101000a03801982511681845116808217855250505050505090500191505060405180910390206000191614156104cc57826104b78686610193565b1115156104c757600190506104d7565b6104d5565b600090506104d7565b5b5b9493505050505600a165627a7a723058202e2ba1d2d6648904d90d62058b1eacdf4e79ee26eae92e478c71ff039203d2fb0029",
  "source": "pragma solidity ^0.4.20;\n\nimport \"./MockPriceFeed.sol\";\n\ncontract MelonConditional {\n\n    string constant GTE = \">=\";\n    string constant LTE = \"<=\";\n\n    function extractPrice(\n        address _priceFeed,\n        address _asset\n    ) view returns (uint256) {\n        uint256 price = MockPriceFeed(_priceFeed).getPrice(_asset);\n        return price;\n    }\n\n    function check(\n        address _priceFeed,\n        address _asset,\n        uint256 _price,\n        string _operator\n    ) public view returns (bool) {\n        if (keccak256(_operator) == keccak256(GTE)) {\n            if (extractPrice(_priceFeed, _asset) >= _price) {\n                return true;\n            }\n        } else if (keccak256(_operator) == keccak256(LTE)) {\n            if (extractPrice(_priceFeed, _asset) <= _price) {\n                return true;\n            }\n        } else { return false; }\n    }\n}",
  "sourcePath": "/home/volt/Projects/melonport-hackathon/contracts/MelonConditional.sol",
  "compiler": {
    "name": "solc",
    "version": "0.4.23+commit.124ca40d.Emscripten.clang"
  },
  "schemaVersion": "2.0.0",
  "updatedAt": "2018-05-18T15:53:08.695Z"
}