{
  "contractName": "MelonConditional",
  "abi": [
    {
      "constant": true,
      "inputs": [
        {
          "name": "_priceFeed",
          "type": "address"
        },
        {
          "name": "_asset",
          "type": "address"
        }
      ],
      "name": "extractPrice",
      "outputs": [
        {
          "name": "",
          "type": "uint256"
        }
      ],
      "payable": false,
      "stateMutability": "view",
      "type": "function"
    },
    {
      "constant": true,
      "inputs": [
        {
          "name": "_priceFeed",
          "type": "address"
        },
        {
          "name": "_asset",
          "type": "address"
        },
        {
          "name": "_price",
          "type": "uint256"
        },
        {
          "name": "_operator",
          "type": "string"
        }
      ],
      "name": "check",
      "outputs": [
        {
          "name": "",
          "type": "bool"
        }
      ],
      "payable": false,
      "stateMutability": "view",
      "type": "function"
    }
  ],
  "bytecode": "0x608060405234801561001057600080fd5b5061052a806100206000396000f30060806040526004361061004c576000357c0100000000000000000000000000000000000000000000000000000000900463ffffffff1680633b5553b614610051578063ed63fe1c146100c8575b600080fd5b34801561005d57600080fd5b506100b2600480360381019080803573ffffffffffffffffffffffffffffffffffffffff169060200190929190803573ffffffffffffffffffffffffffffffffffffffff169060200190929190505050610193565b6040518082815260200191505060405180910390f35b3480156100d457600080fd5b50610179600480360381019080803573ffffffffffffffffffffffffffffffffffffffff169060200190929190803573ffffffffffffffffffffffffffffffffffffffff16906020019092919080359060200190929190803590602001908201803590602001908080601f0160208091040260200160405190810160405280939291908181526020018383808284378201915050505050509192919290505050610297565b604051808215151515815260200191505060405180910390f35b60008060008473ffffffffffffffffffffffffffffffffffffffff166341976e09856040518263ffffffff167c0100000000000000000000000000000000000000000000000000000000028152600401808273ffffffffffffffffffffffffffffffffffffffff1673ffffffffffffffffffffffffffffffffffffffff168152602001915050606060405180830381600087803b15801561023357600080fd5b505af1158015610247573d6000803e3d6000fd5b505050506040513d606081101561025d57600080fd5b81019080805190602001909291908051906020019092919080519060200190929190505050925092505080600a0a82029250505092915050565b60006040805190810160405280600281526020017f3e3d0000000000000000000000000000000000000000000000000000000000008152506040518082805190602001908083835b60208310151561030457805182526020820191506020810190506020830392506102df565b6001836020036101000a038019825116818451168082178552505050505050905001915050604051809103902060001916826040518082805190602001908083835b60208310151561036b5780518252602082019150602081019050602083039250610346565b6001836020036101000a03801982511681845116808217855250505050505090500191505060405180910390206000191614156103c257826103ad8686610193565b1015156103bd57600190506104f6565b6104f5565b6040805190810160405280600281526020017f3c3d0000000000000000000000000000000000000000000000000000000000008152506040518082805190602001908083835b60208310151561042d5780518252602082019150602081019050602083039250610408565b6001836020036101000a038019825116818451168082178552505050505050905001915050604051809103902060001916826040518082805190602001908083835b602083101515610494578051825260208201915060208101905060208303925061046f565b6001836020036101000a03801982511681845116808217855250505050505090500191505060405180910390206000191614156104eb57826104d68686610193565b1115156104e657600190506104f6565b6104f4565b600090506104f6565b5b5b9493505050505600a165627a7a723058206f5a599c2aa8731d2ff719072873fdb8f6cf7331e8df7f4987584066d5fac4f50029",
  "source": "pragma solidity ^0.4.20;\n\nimport \"../smart-contracts/src/pricefeeds/PriceFeedInterface.sol\";\n\ncontract MelonConditional {\n\n    string constant GTE = \">=\";\n    string constant LTE = \"<=\";\n\n    function extractPrice(\n        address _priceFeed,\n        address _asset\n    ) view returns (uint256) {\n        var ( , price, decimal) = PriceFeedInterface(_priceFeed).getPrice(_asset);\n        return (price * 10**decimal);\n    }\n\n    function check(\n        address _priceFeed,\n        address _asset,\n        uint256 _price,\n        string _operator\n    ) public view returns (bool) {\n        if (keccak256(_operator) == keccak256(GTE)) {\n            if (extractPrice(_priceFeed, _asset) >= _price) {\n                return true;\n            }\n        } else if (keccak256(_operator) == keccak256(LTE)) {\n            if (extractPrice(_priceFeed, _asset) <= _price) {\n                return true;\n            }\n        } else { return false; }\n    }\n}",
  "sourcePath": "/home/volt/Projects/melonport-hackathon/contracts/MelonConditional.sol",
  "compiler": {
    "name": "solc",
    "version": "0.4.23+commit.124ca40d.Emscripten.clang"
  },
  "schemaVersion": "2.0.0",
  "updatedAt": "2018-05-17T23:59:33.980Z"
}