{
  "contractName": "MockPriceFeed",
  "abi": [
    {
      "constant": true,
      "inputs": [
        {
          "name": "_asset",
          "type": "address"
        }
      ],
      "name": "getPrice",
      "outputs": [
        {
          "name": "",
          "type": "uint256"
        }
      ],
      "payable": false,
      "stateMutability": "view",
      "type": "function"
    },
    {
      "constant": false,
      "inputs": [
        {
          "name": "_price",
          "type": "uint256"
        }
      ],
      "name": "setPrice",
      "outputs": [
        {
          "name": "",
          "type": "bool"
        }
      ],
      "payable": false,
      "stateMutability": "nonpayable",
      "type": "function"
    }
  ],
  "bytecode": "0x608060405234801561001057600080fd5b50610129806100206000396000f3006080604052600436106049576000357c0100000000000000000000000000000000000000000000000000000000900463ffffffff16806341976e0914604e57806391b7f5ed1460a2575b600080fd5b348015605957600080fd5b50608c600480360381019080803573ffffffffffffffffffffffffffffffffffffffff16906020019092919050505060e4565b6040518082815260200191505060405180910390f35b34801560ad57600080fd5b5060ca6004803603810190808035906020019092919050505060ef565b604051808215151515815260200191505060405180910390f35b600080549050919050565b6000816000819055509190505600a165627a7a72305820dcd86d7f0738ed4b131a140aa253a402b5005f1b017c6c19fb2d43fcee9879c40029",
  "source": "pragma solidity ^0.4.20;\n\ncontract MockPriceFeed {\n    uint256 __mockPrice;\n\n    function getPrice(address _asset) view returns (uint256) {\n        return __mockPrice;\n    }\n\n    function setPrice(uint256 _price) returns (bool) {\n        __mockPrice = _price;\n    }\n}",
  "sourcePath": "/home/volt/Projects/melonport-hackathon/contracts/MockPriceFeed.sol",
  "compiler": {
    "name": "solc",
    "version": "0.4.23+commit.124ca40d.Emscripten.clang"
  },
  "schemaVersion": "2.0.0",
  "updatedAt": "2018-05-18T15:53:08.684Z"
}