{
  "contractName": "Proxy_Wallet",
  "abi": [
    {
      "inputs": [
        {
          "name": "_chronosScheduler",
          "type": "address"
        }
      ],
      "payable": false,
      "stateMutability": "nonpayable",
      "type": "constructor"
    },
    {
      "constant": false,
      "inputs": [
        {
          "name": "_owner",
          "type": "address"
        }
      ],
      "name": "addOwner",
      "outputs": [],
      "payable": false,
      "stateMutability": "nonpayable",
      "type": "function"
    },
    {
      "constant": false,
      "inputs": [
        {
          "name": "_serializedTransaction",
          "type": "bytes"
        }
      ],
      "name": "schedule",
      "outputs": [],
      "payable": true,
      "stateMutability": "payable",
      "type": "function"
    },
    {
      "constant": false,
      "inputs": [
        {
          "name": "_target",
          "type": "address"
        },
        {
          "name": "_callData",
          "type": "bytes"
        }
      ],
      "name": "proxy",
      "outputs": [],
      "payable": true,
      "stateMutability": "payable",
      "type": "function"
    }
  ],
  "bytecode": "0x608060405234801561001057600080fd5b506040516020806105228339810180604052810190808051906020019092919050505060016000803373ffffffffffffffffffffffffffffffffffffffff1673ffffffffffffffffffffffffffffffffffffffff16815260200190815260200160002060006101000a81548160ff02191690831515021790555080600160006101000a81548173ffffffffffffffffffffffffffffffffffffffff021916908373ffffffffffffffffffffffffffffffffffffffff16021790555050610447806100db6000396000f300608060405260043610610057576000357c0100000000000000000000000000000000000000000000000000000000900463ffffffff1680637065cb481461005c578063be6d055a1461009f578063db26e34d1461011b575b600080fd5b34801561006857600080fd5b5061009d600480360381019080803573ffffffffffffffffffffffffffffffffffffffff169060200190929190505050610177565b005b610119600480360381019080803573ffffffffffffffffffffffffffffffffffffffff169060200190929190803590602001908201803590602001908080601f01602080910402602001604051908101604052809392919081815260200183838082843782019150505050505091929192905050506101d3565b005b610175600480360381019080803590602001908201803590602001908080601f0160208091040260200160405190810160405280939291908181526020018383808284378201915050505050509192919290505050610262565b005b3360016000808473ffffffffffffffffffffffffffffffffffffffff1673ffffffffffffffffffffffffffffffffffffffff16815260200190815260200160002060006101000a81548160ff0219169083151502179055505050565b338273ffffffffffffffffffffffffffffffffffffffff16348360405180828051906020019080838360005b8381101561021a5780820151818401526020810190506101ff565b50505050905090810190601f1680156102475780820380516001836020036101000a031916815260200191505b5091505060006040518083038185875af19250505050505050565b600033600160009054906101000a900473ffffffffffffffffffffffffffffffffffffffff1673ffffffffffffffffffffffffffffffffffffffff1663db26e34d34856040518363ffffffff167c01000000000000000000000000000000000000000000000000000000000281526004018080602001828103825283818151815260200191508051906020019080838360005b838110156103105780820151818401526020810190506102f5565b50505050905090810190601f16801561033d5780820380516001836020036101000a031916815260200191505b50925050506020604051808303818588803b15801561035b57600080fd5b505af115801561036f573d6000803e3d6000fd5b50505050506040513d602081101561038657600080fd5b8101908080519060200190929190505050915060008273ffffffffffffffffffffffffffffffffffffffff16141515156103bf57600080fd5b60016000808473ffffffffffffffffffffffffffffffffffffffff1673ffffffffffffffffffffffffffffffffffffffff16815260200190815260200160002060006101000a81548160ff0219169083151502179055505050505600a165627a7a72305820c0671bcf7d86ad681b81a5c130ba9252fcbcbfc77470419d213dea8e6d6ff0fd0029",
  "source": "pragma solidity ^0.4.19;\n\nimport \"../chronos/contracts/Scheduler.sol\";\n\ncontract Proxy_Wallet {\n    mapping(address => bool) whitelist;\n    Scheduler scheduler;\n\n    function Proxy_Wallet(address _chronosScheduler) {\n        whitelist[msg.sender] = true;\n        scheduler = Scheduler(_chronosScheduler);\n    }\n\n    function addOwner(address _owner) isWhitelisted(msg.sender) {\n        whitelist[_owner] = true;\n    }\n\n    // function getIndex() returns (uint8) {\n    //     return (index % (MAX_WHITELIST-1)) +1;\n    // }\n\n    function schedule(bytes _serializedTransaction)\n        payable\n        isWhitelisted(msg.sender)\n    {\n        address scheduledTransaction = scheduler.schedule.value(msg.value)(_serializedTransaction);\n        //sanity\n        require(scheduledTransaction != 0x0);\n        whitelist[scheduledTransaction] = true;\n    }\n\n    function proxy(\n        address _target,\n        bytes _callData\n    ) isWhitelisted(msg.sender) payable {\n        _target.call.value(msg.value)(_callData);\n    }\n\n    modifier isWhitelisted(address _test) {\n        _;\n    }\n}",
  "sourcePath": "/home/volt/Projects/melonport-hackathon/contracts/Proxy_Wallet.sol",
  "compiler": {
    "name": "solc",
    "version": "0.4.23+commit.124ca40d.Emscripten.clang"
  },
  "schemaVersion": "2.0.0",
  "updatedAt": "2018-05-19T09:45:12.822Z"
}