{
  "contractName": "Proxy_Wallet",
  "abi": [
    {
      "inputs": [
        {
          "name": "_chronosScheduler",
          "type": "address"
        }
      ],
      "payable": false,
      "stateMutability": "nonpayable",
      "type": "constructor"
    },
    {
      "constant": false,
      "inputs": [
        {
          "name": "_owner",
          "type": "address"
        }
      ],
      "name": "addOwner",
      "outputs": [],
      "payable": false,
      "stateMutability": "nonpayable",
      "type": "function"
    },
    {
      "constant": false,
      "inputs": [
        {
          "name": "_serializedTransaction",
          "type": "bytes"
        }
      ],
      "name": "schedule",
      "outputs": [],
      "payable": false,
      "stateMutability": "nonpayable",
      "type": "function"
    },
    {
      "constant": false,
      "inputs": [
        {
          "name": "_target",
          "type": "address"
        },
        {
          "name": "_callData",
          "type": "bytes"
        }
      ],
      "name": "proxy",
      "outputs": [],
      "payable": true,
      "stateMutability": "payable",
      "type": "function"
    }
  ],
  "bytecode": "0x608060405234801561001057600080fd5b506040516020806106338339810180604052810190808051906020019092919050505060016000803373ffffffffffffffffffffffffffffffffffffffff1673ffffffffffffffffffffffffffffffffffffffff16815260200190815260200160002060006101000a81548160ff02191690831515021790555080600160006101000a81548173ffffffffffffffffffffffffffffffffffffffff021916908373ffffffffffffffffffffffffffffffffffffffff16021790555050610558806100db6000396000f300608060405260043610610057576000357c0100000000000000000000000000000000000000000000000000000000900463ffffffff1680637065cb481461005c578063be6d055a1461009f578063db26e34d1461011b575b600080fd5b34801561006857600080fd5b5061009d600480360381019080803573ffffffffffffffffffffffffffffffffffffffff169060200190929190505050610184565b005b610119600480360381019080803573ffffffffffffffffffffffffffffffffffffffff169060200190929190803590602001908201803590602001908080601f0160208091040260200160405190810160405280939291908181526020018383808284378201915050505050509192919290505050610237565b005b34801561012757600080fd5b50610182600480360381019080803590602001908201803590602001908080601f016020809104026020016040519081016040528093929190818152602001838380828437820191505050505050919291929050505061031d565b005b336000808273ffffffffffffffffffffffffffffffffffffffff1673ffffffffffffffffffffffffffffffffffffffff16815260200190815260200160002060009054906101000a900460ff1615156101dc57600080fd5b60016000808473ffffffffffffffffffffffffffffffffffffffff1673ffffffffffffffffffffffffffffffffffffffff16815260200190815260200160002060006101000a81548160ff0219169083151502179055505050565b336000808273ffffffffffffffffffffffffffffffffffffffff1673ffffffffffffffffffffffffffffffffffffffff16815260200190815260200160002060009054906101000a900460ff16151561028f57600080fd5b8273ffffffffffffffffffffffffffffffffffffffff16348360405180828051906020019080838360005b838110156102d55780820151818401526020810190506102ba565b50505050905090810190601f1680156103025780820380516001836020036101000a031916815260200191505b5091505060006040518083038185875af19250505050505050565b6000336000808273ffffffffffffffffffffffffffffffffffffffff1673ffffffffffffffffffffffffffffffffffffffff16815260200190815260200160002060009054906101000a900460ff16151561037757600080fd5b600160009054906101000a900473ffffffffffffffffffffffffffffffffffffffff1673ffffffffffffffffffffffffffffffffffffffff1663db26e34d846040518263ffffffff167c01000000000000000000000000000000000000000000000000000000000281526004018080602001828103825283818151815260200191508051906020019080838360005b83811015610421578082015181840152602081019050610406565b50505050905090810190601f16801561044e5780820380516001836020036101000a031916815260200191505b5092505050602060405180830381600087803b15801561046d57600080fd5b505af1158015610481573d6000803e3d6000fd5b505050506040513d602081101561049757600080fd5b8101908080519060200190929190505050915060008273ffffffffffffffffffffffffffffffffffffffff16141515156104d057600080fd5b60016000808473ffffffffffffffffffffffffffffffffffffffff1673ffffffffffffffffffffffffffffffffffffffff16815260200190815260200160002060006101000a81548160ff0219169083151502179055505050505600a165627a7a72305820f787bb83dcd42dbd7cbd6f475819a70512e7f2907dbb4cdb78ad8d1f4d0496080029",
  "source": "pragma solidity ^0.4.19;\n\nimport \"../chronos/contracts/Scheduler.sol\";\n\ncontract Proxy_Wallet {\n    mapping(address => bool) whitelist;\n    Scheduler scheduler;\n\n    function Proxy_Wallet(address _chronosScheduler) {\n        whitelist[msg.sender] = true;\n        scheduler = Scheduler(_chronosScheduler);\n    }\n    \n    function addOwner(address _owner) isWhitelisted(msg.sender) {\n        whitelist[_owner] = true;\n    }\n\n    // function getIndex() returns (uint8) {\n    //     return (index % (MAX_WHITELIST-1)) +1;\n    // }\n\n    function schedule(bytes _serializedTransaction)\n        isWhitelisted(msg.sender)\n    {\n        address scheduledTransaction = scheduler.schedule(_serializedTransaction);\n        //sanity\n        require(scheduledTransaction != 0x0);\n        whitelist[scheduledTransaction] = true;\n    }\n\n    function proxy(\n        address _target,\n        bytes _callData\n    ) isWhitelisted(msg.sender) payable {\n        _target.call.value(msg.value)(_callData);\n    }\n\n    modifier isWhitelisted(address _test) {\n        require(whitelist[_test]);\n        _;\n    }\n}",
  "sourcePath": "/home/volt/Projects/melonport-hackathon/contracts/Proxy_Wallet.sol",
  "compiler": {
    "name": "solc",
    "version": "0.4.23+commit.124ca40d.Emscripten.clang"
  },
  "schemaVersion": "2.0.0",
  "updatedAt": "2018-05-18T15:53:08.697Z"
}