{
  "contractName": "ScheduledTransaction",
  "abi": [
    {
      "constant": true,
      "inputs": [],
      "name": "initialized",
      "outputs": [
        {
          "name": "",
          "type": "bool"
        }
      ],
      "payable": false,
      "stateMutability": "view",
      "type": "function"
    },
    {
      "constant": true,
      "inputs": [],
      "name": "executed",
      "outputs": [
        {
          "name": "",
          "type": "bool"
        }
      ],
      "payable": false,
      "stateMutability": "view",
      "type": "function"
    },
    {
      "constant": true,
      "inputs": [],
      "name": "claimingNode",
      "outputs": [
        {
          "name": "",
          "type": "address"
        }
      ],
      "payable": false,
      "stateMutability": "view",
      "type": "function"
    },
    {
      "constant": true,
      "inputs": [],
      "name": "scheduledFrom",
      "outputs": [
        {
          "name": "",
          "type": "address"
        }
      ],
      "payable": false,
      "stateMutability": "view",
      "type": "function"
    },
    {
      "constant": true,
      "inputs": [],
      "name": "owner",
      "outputs": [
        {
          "name": "",
          "type": "address"
        }
      ],
      "payable": false,
      "stateMutability": "view",
      "type": "function"
    },
    {
      "constant": true,
      "inputs": [],
      "name": "cancelled",
      "outputs": [
        {
          "name": "",
          "type": "bool"
        }
      ],
      "payable": false,
      "stateMutability": "view",
      "type": "function"
    },
    {
      "constant": true,
      "inputs": [],
      "name": "successful",
      "outputs": [
        {
          "name": "",
          "type": "bool"
        }
      ],
      "payable": false,
      "stateMutability": "view",
      "type": "function"
    },
    {
      "constant": true,
      "inputs": [],
      "name": "ipfsHash",
      "outputs": [
        {
          "name": "",
          "type": "bytes32"
        }
      ],
      "payable": false,
      "stateMutability": "view",
      "type": "function"
    },
    {
      "constant": true,
      "inputs": [],
      "name": "claimed",
      "outputs": [
        {
          "name": "",
          "type": "bool"
        }
      ],
      "payable": false,
      "stateMutability": "view",
      "type": "function"
    },
    {
      "payable": false,
      "stateMutability": "nonpayable",
      "type": "fallback"
    },
    {
      "constant": false,
      "inputs": [
        {
          "name": "_ipfsHash",
          "type": "bytes32"
        },
        {
          "name": "_owner",
          "type": "address"
        },
        {
          "name": "_scheduledFrom",
          "type": "address"
        },
        {
          "name": "_claimingNode",
          "type": "address"
        }
      ],
      "name": "init",
      "outputs": [],
      "payable": true,
      "stateMutability": "payable",
      "type": "function"
    },
    {
      "constant": true,
      "inputs": [
        {
          "name": "_s",
          "type": "bytes"
        }
      ],
      "name": "checkHash",
      "outputs": [
        {
          "name": "",
          "type": "bool"
        }
      ],
      "payable": false,
      "stateMutability": "view",
      "type": "function"
    },
    {
      "constant": true,
      "inputs": [
        {
          "name": "_serializedTransaction",
          "type": "bytes"
        }
      ],
      "name": "canExecute",
      "outputs": [
        {
          "name": "",
          "type": "bool"
        }
      ],
      "payable": false,
      "stateMutability": "view",
      "type": "function"
    },
    {
      "constant": false,
      "inputs": [
        {
          "name": "_serializedTransaction",
          "type": "bytes"
        }
      ],
      "name": "execute",
      "outputs": [
        {
          "name": "",
          "type": "bool"
        }
      ],
      "payable": false,
      "stateMutability": "nonpayable",
      "type": "function"
    },
    {
      "constant": false,
      "inputs": [],
      "name": "cancel",
      "outputs": [
        {
          "name": "",
          "type": "bool"
        }
      ],
      "payable": false,
      "stateMutability": "nonpayable",
      "type": "function"
    },
    {
      "constant": false,
      "inputs": [
        {
          "name": "_to",
          "type": "address"
        },
        {
          "name": "_data",
          "type": "bytes"
        }
      ],
      "name": "proxy",
      "outputs": [
        {
          "name": "",
          "type": "bool"
        }
      ],
      "payable": true,
      "stateMutability": "payable",
      "type": "function"
    }
  ],
  "bytecode": "0x60806040526000600260006101000a81548173ffffffffffffffffffffffffffffffffffffffff021916908373ffffffffffffffffffffffffffffffffffffffff1602179055506000600260146101000a81548160ff0219169083151502179055506000600260156101000a81548160ff0219169083151502179055506000600360006101000a81548173ffffffffffffffffffffffffffffffffffffffff021916908373ffffffffffffffffffffffffffffffffffffffff1602179055506000600360146101000a81548160ff0219169083151502179055506000600360156101000a81548160ff0219169083151502179055506000600360166101000a81548160ff02191690831515021790555034801561011b57600080fd5b506112d88061012b6000396000f3006080604052600436106100db576000357c0100000000000000000000000000000000000000000000000000000000900463ffffffff16806309c5eabe146100ed578063158ef93e1461016e57806331a38c891461019d5780636c5be56b146101cc57806378108f521461024d578063882d7a82146102a45780638da5cb5b146102fb5780639a82a09a146103525780639a9e3fd814610381578063a0304e4c146103b0578063be6d055a14610434578063c623674f146104c8578063e834a834146104fb578063ea8a1af01461052a578063faeb496814610559575b3480156100e757600080fd5b50600080fd5b3480156100f957600080fd5b50610154600480360381019080803590602001908201803590602001908080601f01602080910402602001604051908101604052809392919081815260200183838082843782019150505050505091929192905050506105da565b604051808215151515815260200191505060405180910390f35b34801561017a57600080fd5b50610183610a02565b604051808215151515815260200191505060405180910390f35b3480156101a957600080fd5b506101b2610a15565b604051808215151515815260200191505060405180910390f35b3480156101d857600080fd5b50610233600480360381019080803590602001908201803590602001908080601f0160208091040260200160405190810160405280939291908181526020018383808284378201915050505050509192919290505050610a28565b604051808215151515815260200191505060405180910390f35b34801561025957600080fd5b50610262610a88565b604051808273ffffffffffffffffffffffffffffffffffffffff1673ffffffffffffffffffffffffffffffffffffffff16815260200191505060405180910390f35b3480156102b057600080fd5b506102b9610aae565b604051808273ffffffffffffffffffffffffffffffffffffffff1673ffffffffffffffffffffffffffffffffffffffff16815260200191505060405180910390f35b34801561030757600080fd5b50610310610ad4565b604051808273ffffffffffffffffffffffffffffffffffffffff1673ffffffffffffffffffffffffffffffffffffffff16815260200191505060405180910390f35b34801561035e57600080fd5b50610367610afa565b604051808215151515815260200191505060405180910390f35b34801561038d57600080fd5b50610396610b0d565b604051808215151515815260200191505060405180910390f35b6104326004803603810190808035600019169060200190929190803573ffffffffffffffffffffffffffffffffffffffff169060200190929190803573ffffffffffffffffffffffffffffffffffffffff169060200190929190803573ffffffffffffffffffffffffffffffffffffffff169060200190929190505050610b20565b005b6104ae600480360381019080803573ffffffffffffffffffffffffffffffffffffffff169060200190929190803590602001908201803590602001908080601f0160208091040260200160405190810160405280939291908181526020018383808284378201915050505050509192919290505050610c2b565b604051808215151515815260200191505060405180910390f35b3480156104d457600080fd5b506104dd610d34565b60405180826000191660001916815260200191505060405180910390f35b34801561050757600080fd5b50610510610d3a565b604051808215151515815260200191505060405180910390f35b34801561053657600080fd5b5061053f610d4d565b604051808215151515815260200191505060405180910390f35b34801561056557600080fd5b506105c0600480360381019080803590602001908201803590602001908080601f0160208091040260200160405190810160405280939291908181526020018383808284378201915050505050509192919290505050610ea0565b604051808215151515815260200191505060405180910390f35b600080600080600080600080600080606060006105f68d610ea0565b151561060157600080fd5b61060a8d610a28565b151561061557600080fd5b60208d01519a5060408d0151995060608d0151985060808d0151975060a08d0151965060c08d0151955060e08d015194506101008d015193506101208d015192506106628d610160611089565b91506161a86202bf208901035a1015151561067c57600080fd5b600360149054906101000a900460ff1615151561069857600080fd5b6106a38b87876110c2565b15156106ae57600080fd5b600260159054906101000a900460ff161561079357600360009054906101000a900473ffffffffffffffffffffffffffffffffffffffff1673ffffffffffffffffffffffffffffffffffffffff163373ffffffffffffffffffffffffffffffffffffffff16141515610735576107258b8787611112565b151561073057600080fd5b610792565b600360009054906101000a900473ffffffffffffffffffffffffffffffffffffffff1673ffffffffffffffffffffffffffffffffffffffff163373ffffffffffffffffffffffffffffffffffffffff1614151561079157600080fd5b5b5b863a1415156107a157600080fd5b6001600360146101000a81548160ff0219169083151502179055508973ffffffffffffffffffffffffffffffffffffffff168989908460405180828051906020019080838360005b838110156108045780820151818401526020810190506107e9565b50505050905090810190601f1680156108315780820380516001836020036101000a031916815260200191505b50915050600060405180830381858888f19350505050600360156101000a81548160ff02191690831515021790555061086a3385611164565b151561087557600080fd5b600160009054906101000a900473ffffffffffffffffffffffffffffffffffffffff1673ffffffffffffffffffffffffffffffffffffffff1663469048406040518163ffffffff167c0100000000000000000000000000000000000000000000000000000000028152600401602060405180830381600087803b1580156108fb57600080fd5b505af115801561090f573d6000803e3d6000fd5b505050506040513d602081101561092557600080fd5b8101908080519060200190929190505050905060008173ffffffffffffffffffffffffffffffffffffffff1614151561096e5761096281846111a3565b151561096d57600080fd5b5b600260009054906101000a900473ffffffffffffffffffffffffffffffffffffffff1673ffffffffffffffffffffffffffffffffffffffff166108fc3073ffffffffffffffffffffffffffffffffffffffff16319081150290604051600060405180830381858888f193505050501580156109ed573d6000803e3d6000fd5b5060019b505050505050505050505050919050565b600260149054906101000a900460ff1681565b600360149054906101000a900460ff1681565b6000806060610140840151915060008273ffffffffffffffffffffffffffffffffffffffff161415610a5d5760019250610a81565b610a6984610180611089565b905060018002610a7983836111e2565b600019161492505b5050919050565b600360009054906101000a900473ffffffffffffffffffffffffffffffffffffffff1681565b600160009054906101000a900473ffffffffffffffffffffffffffffffffffffffff1681565b600260009054906101000a900473ffffffffffffffffffffffffffffffffffffffff1681565b600360169054906101000a900460ff1681565b600360159054906101000a900460ff1681565b600260149054906101000a900460ff16151515610b3c57600080fd5b836000816000191690555082600260006101000a81548173ffffffffffffffffffffffffffffffffffffffff021916908373ffffffffffffffffffffffffffffffffffffffff16021790555081600160006101000a81548173ffffffffffffffffffffffffffffffffffffffff021916908373ffffffffffffffffffffffffffffffffffffffff16021790555080600360006101000a81548173ffffffffffffffffffffffffffffffffffffffff021916908373ffffffffffffffffffffffffffffffffffffffff1602179055506001600260146101000a81548160ff02191690831515021790555050505050565b6000600260009054906101000a900473ffffffffffffffffffffffffffffffffffffffff1673ffffffffffffffffffffffffffffffffffffffff163373ffffffffffffffffffffffffffffffffffffffff16141515610c8957600080fd5b600360149054906101000a900460ff161515610ca457600080fd5b8273ffffffffffffffffffffffffffffffffffffffff16348360405180828051906020019080838360005b83811015610cea578082015181840152602081019050610ccf565b50505050905090810190601f168015610d175780820380516001836020036101000a031916815260200191505b5091505060006040518083038185875af192505050905092915050565b60005481565b600260159054906101000a900460ff1681565b6000600260009054906101000a900473ffffffffffffffffffffffffffffffffffffffff1673ffffffffffffffffffffffffffffffffffffffff163373ffffffffffffffffffffffffffffffffffffffff16141515610dab57600080fd5b600260149054906101000a900460ff161515610dc657600080fd5b600360169054906101000a900460ff16151515610de257600080fd5b600360149054906101000a900460ff16151515610dfe57600080fd5b6001600360166101000a81548160ff021916908315150217905550600260009054906101000a900473ffffffffffffffffffffffffffffffffffffffff1673ffffffffffffffffffffffffffffffffffffffff166108fc3073ffffffffffffffffffffffffffffffffffffffff16319081150290604051600060405180830381858888f19350505050158015610e98573d6000803e3d6000fd5b506001905090565b600080600160009054906101000a900473ffffffffffffffffffffffffffffffffffffffff1673ffffffffffffffffffffffffffffffffffffffff1663d7959cf96040518163ffffffff167c0100000000000000000000000000000000000000000000000000000000028152600401602060405180830381600087803b158015610f2957600080fd5b505af1158015610f3d573d6000803e3d6000fd5b505050506040513d6020811015610f5357600080fd5b810190808051906020019092919050505073ffffffffffffffffffffffffffffffffffffffff166354f0cbac846040518263ffffffff167c01000000000000000000000000000000000000000000000000000000000281526004018080602001828103825283818151815260200191508051906020019080838360005b83811015610feb578082015181840152602081019050610fd0565b50505050905090810190601f1680156110185780820380516001836020036101000a031916815260200191505b5092505050602060405180830381600087803b15801561103757600080fd5b505af115801561104b573d6000803e3d6000fd5b505050506040513d602081101561106157600080fd5b8101908080519060200190929190505050905060005460001916816000191614915050919050565b6060600080600084860151925060208301915060208201905081860151915080860190506110b7818361120a565b935050505092915050565b600060018414156110e5578243101580156110de575081830143105b905061110b565b6002841415611106578242101580156110ff575081830142105b905061110b565b600090505b9392505050565b600060018414156111365760028281151561112957fe5b048301431015905061115d565b60028414156111585760028281151561114b57fe5b048301421015905061115d565b600090505b9392505050565b60008273ffffffffffffffffffffffffffffffffffffffff166108fc839081150290604051600060405180830381858888f19350505050905092915050565b60008273ffffffffffffffffffffffffffffffffffffffff166108fc839081150290604051600060405180830381858888f19350505050905092915050565b6000604051602081845160208601600088611388f15080519150602081016040525092915050565b6060806000836040519080825280601f01601f1916602001820160405280156112425781602001602082028038833980820191505090505b509150602082019050611256818686611261565b819250505092915050565b60005b6020821015156112895782518452602084019350602083019250602082039150611264565b6001826020036101000a03905080198351168185511681811786525050505050505600a165627a7a723058204f4ac840aa59eff25c7b707ee3814682c45ca736597f19cb84a704e0de34900e0029",
  "source": "pragma solidity ^0.4.19;\n\nimport \"./IPFS.sol\";\nimport \"./Scheduler.sol\";\n\ncontract ScheduledTransaction {\n    bytes32 public ipfsHash;\n    address public scheduledFrom;\n\n    address public owner = 0x0;\n\n    // will switch to true when initialized (prevents re-initialization)\n    bool public initialized = false;\n    \n    // will switch to true when claimed\n    bool public claimed = false;\n    address public claimingNode = 0x0;\n\n    // will switch to true when executed\n    bool public executed = false;\n\n    // will switch to true if successful\n    bool public successful = false;\n\n    // will switch to true if cancelled\n    bool public cancelled = false;\n\n    // disallow receiving ether\n    function() public {revert();}\n\n    function init(\n        bytes32 _ipfsHash,\n        address _owner,\n        address _scheduledFrom,\n        address _claimingNode\n    ) public payable {\n        require(!initialized);\n        ipfsHash = _ipfsHash;\n        owner = _owner;\n        scheduledFrom = _scheduledFrom;\n        claimingNode = _claimingNode;\n        initialized = true;\n    }\n\n    function checkHash(bytes _s)\n        public constant returns (bool)\n    {\n        bytes32 checkHash = IPFS(Scheduler(scheduledFrom).ipfs()).generateHash(_s);\n        return checkHash == ipfsHash;\n    }\n\n    function checkInExecutionWindow(\n        uint256 temporalUnit,\n        uint256 executionWindowStart,\n        uint256 executionWindowLength\n    ) private view returns (bool) {\n        if (temporalUnit == 1) {\n            return (\n                block.number >= executionWindowStart &&\n                block.number < executionWindowStart + executionWindowLength\n            );\n        } else if (temporalUnit == 2) {\n            return (\n                block.timestamp >= executionWindowStart &&\n                block.timestamp < executionWindowStart + executionWindowLength\n            );\n        } else { return false; }\n    }\n\n    function checkSecondHalfOfExecutionWindow(\n        uint256 temporalUnit,\n        uint256 executionWindowStart,\n        uint256 executionWindowLength\n    ) private view returns (bool) {\n        if (temporalUnit == 1) {\n            return block.number >= executionWindowStart + executionWindowLength /2;\n        } else if (temporalUnit == 2) {\n            return block.timestamp >= executionWindowStart + executionWindowLength /2;\n        } else { return false; }\n    }\n\n    function canExecute(bytes _serializedTransaction) \n        public view returns(bool)\n    {\n        address conditionalDest;\n\n        assembly {\n            conditionalDest := mload(add(_serializedTransaction, 320))\n        }\n\n        if (conditionalDest == 0x0) { //no conditional data\n            return true;\n        }\n\n        bytes memory conditionalCallData = getCallData(_serializedTransaction, 384);\n\n        return callWithData(conditionalDest, conditionalCallData) == 1;\n    }\n\n    function callWithData(address dest, bytes data) \n        private returns (bytes32 c)\n    {\n        assembly {\n            let freemem := mload(0x40)\n            \n            pop(\n            call(      \n                5000, //5k gas\n                dest, //To addr\n                0,    //No value\n                add(data, 0x20),    //Inputs are stored at location x\n                mload(data),\n                freemem,    //Store output over input (saves space)\n                0x20 //Outputs are 32 bytes long\n            )\n            )\n    \n            c := mload(freemem) //Assign output value to c\n            mstore(0x40, add(freemem, 0x20)) // Set storage pointer to empty space\n        }\n    }\n\n    function execute(bytes _serializedTransaction)\n        public returns (bool)\n    {\n        // uint256 startGas = msg.gas;\n        require(checkHash(_serializedTransaction));\n        require(canExecute(_serializedTransaction));\n\n        uint256 temporalUnit;\n        address recipient;\n        uint256 value;\n        uint256 callGas;\n        uint256 gasPrice;\n        uint256 executionWindowStart;\n        uint256 executionWindowLength;\n        uint256 bounty;\n        uint256 fee;\n\n        assembly {\n            temporalUnit := mload(add(_serializedTransaction, 32))\n            recipient := mload(add(_serializedTransaction, 64))\n            value := mload(add(_serializedTransaction, 96))\n            callGas := mload(add(_serializedTransaction, 128))\n            gasPrice := mload(add(_serializedTransaction, 160))\n            executionWindowStart := mload(add(_serializedTransaction, 192))\n            executionWindowLength := mload(add(_serializedTransaction, 224))\n            bounty := mload(add(_serializedTransaction, 256))\n            fee := mload(add(_serializedTransaction, 288))\n        }\n\n        bytes memory callData = getCallData(_serializedTransaction, 352);\n\n        // check gasleft() >= requiredGas\n        require(gasleft() >= callGas + 180000 - 25000);\n        // check that this hasn't been executed yet\n        require(!executed);\n        // check in execution window\n        require(\n            checkInExecutionWindow(\n                temporalUnit, \n                executionWindowStart, \n                executionWindowLength\n            )\n        );\n        // if claimed, check that claimer is executing\n        if (claimed) {\n            if (msg.sender != claimingNode) {\n                require(\n                    checkSecondHalfOfExecutionWindow(\n                        temporalUnit,\n                        executionWindowStart,\n                        executionWindowLength\n                    )\n                );\n            } else {\n                require(msg.sender == claimingNode);\n            }\n        }\n\n        // check gasPrice\n        require(tx.gasprice == gasPrice);\n\n        // mark that this has been executed\n        executed = true;\n\n        successful = recipient.call.value(value).gas(callGas)(callData);\n\n        // check bounty recipient, send bounty\n        // NOTE: In a `require()` gate now, but might lift this later.\n        require(bountyPayout(msg.sender, bounty));\n\n        //  check fee recipient, send fee\n        address feeRecipient = Scheduler(scheduledFrom).feeRecipient();\n        if (feeRecipient != 0x0) {\n            require(feePayout(feeRecipient, fee));\n        }\n        \n        // send remaining ether back to scheduler\n        owner.transfer(address(this).balance); //todo more checks on this\n\n        return true;\n    }\n\n    function bountyPayout(address _recip, uint256 _bounty)\n        private returns (bool)\n    {\n        return _recip.send(_bounty);\n    }\n\n    function feePayout(address _recip, uint256 _fee)\n        private returns (bool)\n    {\n        return _recip.send(_fee);\n    }\n\n    function getCallData(bytes _serializedTransaction, uint _startLoc) \n        private view returns (bytes)\n    {\n        uint256 start;\n        assembly {\n            start := mload(add(_serializedTransaction, _startLoc))\n        }\n        uint256 len = start + 0x20;\n        uint256 data = len + 0x20;\n        assembly {\n            len := mload(add(_serializedTransaction, len)) // location\n            data := add(_serializedTransaction, data)\n        }\n        return toBytes(data, len);\n    }\n\n    function toBytes(uint256 _ptr, uint256 _len) internal view returns (bytes) {\n        bytes memory ret = new bytes(_len);\n        uint retptr;\n        assembly { retptr := add(ret, 32)  }\n\n        memcpy(retptr, _ptr, _len);\n        return ret;\n    }\n\n    function memcpy(uint256 dest, uint src, uint len) private pure {\n        // Copy word-length chunks while possible\n        for(; len >= 32; len -= 32) {\n            assembly {\n                mstore(dest, mload(src))\n            }\n            dest += 32;\n            src += 32;\n        }\n \n        // Copy remaining bytes\n        uint mask = 256 ** (32 - len) - 1;\n        assembly {\n            let srcpart := and(mload(src), not(mask))\n            let destpart := and(mload(dest), mask)\n            mstore(dest, or(destpart, srcpart))\n        }\n    }\n\n    function cancel()\n        public returns (bool)\n    {\n        // check if msg.sender == owner\n        require(msg.sender == owner);\n        require(initialized);\n        require(!cancelled);\n        require(!executed);\n        cancelled = true;\n        owner.transfer(address(this).balance);\n        return true;\n    }\n\n    // function claim()\n    //     public returns (bool)\n    // {\n    //     if (claimingPool == address(0x0)) { return true; }\n    //     // Gate\n    //     bool canClaim = ClaimingPool(claimingPool).canClaim(msg.sender);\n    //     require(canClaim);\n    //     claimed = true;\n    //     claimingNode = msg.sender;\n    // }\n\n    function proxy(address _to, bytes _data)\n        public payable returns (bool)\n    {\n        require(msg.sender == owner);\n        require(executed); // make sure this is the only check we need\n        return _to.call.value(msg.value)(_data);\n    }\n\n    // pull transactions?\n}",
  "sourcePath": "/home/volt/Projects/melonport-hackathon/chronos/contracts/ScheduledTransaction.sol",
  "compiler": {
    "name": "solc",
    "version": "0.4.23+commit.124ca40d.Emscripten.clang"
  },
  "schemaVersion": "2.0.0",
  "updatedAt": "2018-05-18T16:09:45.403Z"
}