{
  "contractName": "Scheduler",
  "abi": [
    {
      "constant": true,
      "inputs": [],
      "name": "feeRecipient",
      "outputs": [
        {
          "name": "",
          "type": "address"
        }
      ],
      "payable": false,
      "stateMutability": "view",
      "type": "function"
    },
    {
      "constant": true,
      "inputs": [],
      "name": "scheduledTxCore",
      "outputs": [
        {
          "name": "",
          "type": "address"
        }
      ],
      "payable": false,
      "stateMutability": "view",
      "type": "function"
    },
    {
      "constant": true,
      "inputs": [],
      "name": "eventEmitter",
      "outputs": [
        {
          "name": "",
          "type": "address"
        }
      ],
      "payable": false,
      "stateMutability": "view",
      "type": "function"
    },
    {
      "constant": true,
      "inputs": [],
      "name": "ipfs",
      "outputs": [
        {
          "name": "",
          "type": "address"
        }
      ],
      "payable": false,
      "stateMutability": "view",
      "type": "function"
    },
    {
      "inputs": [
        {
          "name": "_eventEmitter",
          "type": "address"
        },
        {
          "name": "_feeRecipient",
          "type": "address"
        },
        {
          "name": "_ipfsLib",
          "type": "address"
        },
        {
          "name": "_scheduledTxCore",
          "type": "address"
        }
      ],
      "payable": false,
      "stateMutability": "nonpayable",
      "type": "constructor"
    },
    {
      "payable": false,
      "stateMutability": "nonpayable",
      "type": "fallback"
    },
    {
      "anonymous": false,
      "inputs": [
        {
          "indexed": true,
          "name": "target",
          "type": "address"
        },
        {
          "indexed": false,
          "name": "clone",
          "type": "address"
        }
      ],
      "name": "CloneCreated",
      "type": "event"
    },
    {
      "constant": false,
      "inputs": [
        {
          "name": "_serializedTransaction",
          "type": "bytes"
        }
      ],
      "name": "schedule",
      "outputs": [
        {
          "name": "scheduledTx",
          "type": "address"
        }
      ],
      "payable": true,
      "stateMutability": "payable",
      "type": "function"
    },
    {
      "constant": false,
      "inputs": [],
      "name": "createTransaction",
      "outputs": [
        {
          "name": "",
          "type": "address"
        }
      ],
      "payable": false,
      "stateMutability": "nonpayable",
      "type": "function"
    }
  ],
  "bytecode": "0x608060405234801561001057600080fd5b50604051608080610ac083398101806040528101908080519060200190929190805190602001909291908051906020019092919080519060200190929190505050836000806101000a81548173ffffffffffffffffffffffffffffffffffffffff021916908373ffffffffffffffffffffffffffffffffffffffff16021790555082600160006101000a81548173ffffffffffffffffffffffffffffffffffffffff021916908373ffffffffffffffffffffffffffffffffffffffff16021790555081600260006101000a81548173ffffffffffffffffffffffffffffffffffffffff021916908373ffffffffffffffffffffffffffffffffffffffff16021790555080600360006101000a81548173ffffffffffffffffffffffffffffffffffffffff021916908373ffffffffffffffffffffffffffffffffffffffff16021790555050505050610959806101676000396000f300608060405260043610610078576000357c0100000000000000000000000000000000000000000000000000000000900463ffffffff168063469048401461008a5780634ad41950146100e157806397b54cc2146101385780639ff78c301461018f578063d7959cf9146101e6578063db26e34d1461023d575b34801561008457600080fd5b50600080fd5b34801561009657600080fd5b5061009f6102d9565b604051808273ffffffffffffffffffffffffffffffffffffffff1673ffffffffffffffffffffffffffffffffffffffff16815260200191505060405180910390f35b3480156100ed57600080fd5b506100f66102ff565b604051808273ffffffffffffffffffffffffffffffffffffffff1673ffffffffffffffffffffffffffffffffffffffff16815260200191505060405180910390f35b34801561014457600080fd5b5061014d610325565b604051808273ffffffffffffffffffffffffffffffffffffffff1673ffffffffffffffffffffffffffffffffffffffff16815260200191505060405180910390f35b34801561019b57600080fd5b506101a4610357565b604051808273ffffffffffffffffffffffffffffffffffffffff1673ffffffffffffffffffffffffffffffffffffffff16815260200191505060405180910390f35b3480156101f257600080fd5b506101fb61037c565b604051808273ffffffffffffffffffffffffffffffffffffffff1673ffffffffffffffffffffffffffffffffffffffff16815260200191505060405180910390f35b610297600480360381019080803590602001908201803590602001908080601f01602080910402602001604051908101604052809392919081815260200183838082843782019150505050505091929192905050506103a2565b604051808273ffffffffffffffffffffffffffffffffffffffff1673ffffffffffffffffffffffffffffffffffffffff16815260200191505060405180910390f35b600160009054906101000a900473ffffffffffffffffffffffffffffffffffffffff1681565b600360009054906101000a900473ffffffffffffffffffffffffffffffffffffffff1681565b6000610352600360009054906101000a900473ffffffffffffffffffffffffffffffffffffffff16610811565b905090565b6000809054906101000a900473ffffffffffffffffffffffffffffffffffffffff1681565b600260009054906101000a900473ffffffffffffffffffffffffffffffffffffffff1681565b600080600080600080600080606089015196506080890151955060a089015194506101008901519350610120890151925082848688028901010191508134101515156103ed57600080fd5b600260009054906101000a900473ffffffffffffffffffffffffffffffffffffffff1673ffffffffffffffffffffffffffffffffffffffff166354f0cbac8a6040518263ffffffff167c01000000000000000000000000000000000000000000000000000000000281526004018080602001828103825283818151815260200191508051906020019080838360005b8381101561049757808201518184015260208101905061047c565b50505050905090810190601f1680156104c45780820380516001836020036101000a031916815260200191505b5092505050602060405180830381600087803b1580156104e357600080fd5b505af11580156104f7573d6000803e3d6000fd5b505050506040513d602081101561050d57600080fd5b81019080805190602001909291905050509050610528610325565b975060008873ffffffffffffffffffffffffffffffffffffffff161415151561055057600080fd5b8773ffffffffffffffffffffffffffffffffffffffff1663a0304e4c348333307317b17026c423a988c3d1375252c3021ff32f354c6040518663ffffffff167c01000000000000000000000000000000000000000000000000000000000281526004018085600019166000191681526020018473ffffffffffffffffffffffffffffffffffffffff1673ffffffffffffffffffffffffffffffffffffffff1681526020018373ffffffffffffffffffffffffffffffffffffffff1673ffffffffffffffffffffffffffffffffffffffff1681526020018273ffffffffffffffffffffffffffffffffffffffff1673ffffffffffffffffffffffffffffffffffffffff1681526020019450505050506000604051808303818588803b15801561067757600080fd5b505af115801561068b573d6000803e3d6000fd5b50505050506000809054906101000a900473ffffffffffffffffffffffffffffffffffffffff1673ffffffffffffffffffffffffffffffffffffffff1663eb0d6330898b336040518463ffffffff167c0100000000000000000000000000000000000000000000000000000000028152600401808473ffffffffffffffffffffffffffffffffffffffff1673ffffffffffffffffffffffffffffffffffffffff168152602001806020018373ffffffffffffffffffffffffffffffffffffffff1673ffffffffffffffffffffffffffffffffffffffff168152602001828103825284818151815260200191508051906020019080838360005b8381101561079f578082015181840152602081019050610784565b50505050905090810190601f1680156107cc5780820380516001836020036101000a031916815260200191505b50945050505050600060405180830381600087803b1580156107ed57600080fd5b505af1158015610801573d6000803e3d6000fd5b5050505050505050505050919050565b60006060600080606060405190810160405280603e81526020017f600034603b57602f80600f833981f36000368180378080368173bebebebebebe81526020017fbebebebebebebebebebebebebebe5af415602c573d81803e3d81f35b80fd00008152509250846c01000000000000000000000000029150600090505b60148110156109165781816014811015156108a557fe5b1a7f0100000000000000000000000000000000000000000000000000000000000000028382601a018151811015156108d957fe5b9060200101907effffffffffffffffffffffffffffffffffffffffffffffffffffffffffffff1916908160001a905350808060010191505061088e565b82516020840181816000f0955050505050509190505600a165627a7a72305820225597667ff6f775982b1741c6a743662339d0d8a0226fa2929d8dce08093a0e0029",
  "source": "pragma solidity ^0.4.19;\n\nimport \"./ClaimElection.sol\";\nimport \"./CloneFactory.sol\";\nimport \"./EventEmitter.sol\";\nimport \"./IPFS.sol\";\nimport \"./ScheduledTransaction.sol\";\n\ncontract Scheduler is CloneFactory {\n    function () public {revert();}\n\n    // address public claimElection;\n    address public eventEmitter;\n    address public feeRecipient;\n    address public ipfs;\n    address public scheduledTxCore;\n\n    function Scheduler(\n        address _eventEmitter,\n        address _feeRecipient,\n        address _ipfsLib,\n        address _scheduledTxCore\n    ) public {\n        // Deploy a new pQueue and claim election\n        // claimElection = address(new ClaimElection());\n\n        eventEmitter = _eventEmitter;\n        feeRecipient = _feeRecipient;\n        ipfs = _ipfsLib;\n        scheduledTxCore = _scheduledTxCore;\n    }\n\n    function schedule(bytes _serializedTransaction) \n        public payable returns (address scheduledTx)\n    {\n        uint256 value;\n        uint256 callGas;\n        uint256 gasPrice;\n        uint256 bounty;\n        uint256 fee;\n\n        assembly {\n            value := mload(add(_serializedTransaction, 96))\n            callGas := mload(add(_serializedTransaction, 128))\n            gasPrice := mload(add(_serializedTransaction, 160))\n            bounty := mload(add(_serializedTransaction, 256))\n            fee := mload(add(_serializedTransaction, 288))\n        }\n        \n        uint endowment = value + callGas * gasPrice + bounty + fee;\n        require(msg.value >= endowment);\n        \n        bytes32 ipfsHash = IPFS(ipfs).generateHash(_serializedTransaction);\n\n        scheduledTx = createTransaction();\n        require(scheduledTx != 0x0);\n\n        // Claim Logic Start\n        // if (!ClaimElection(claimElection).isEmpty()) {\n        //     address nextClaimingNode = ClaimElection(claimElection).getNext();\n        // }\n        // Claim Logic End\n\n        ScheduledTransaction(scheduledTx).init.value(msg.value)(ipfsHash, msg.sender, address(this), address(0x17B17026C423a988C3D1375252C3021ff32F354C));\n\n        // Record on the event emitter\n        EventEmitter(eventEmitter).logNewTransactionScheduled(scheduledTx, _serializedTransaction, msg.sender);\n    }\n\n    function createTransaction() public returns (address) {\n        return createClone(scheduledTxCore);\n    }\n}\n",
  "sourcePath": "/home/volt/Projects/melonport-hackathon/chronos/contracts/Scheduler.sol",
  "compiler": {
    "name": "solc",
    "version": "0.4.23+commit.124ca40d.Emscripten.clang"
  },
  "schemaVersion": "2.0.0",
  "updatedAt": "2018-05-17T23:59:33.979Z"
}